:100000001AC033C032C031C030C02FC02EC02DC086
:100010002CC02BC02AC029C028C027C026C025C09C
:1000200024C023C022C0F474740A08F7204C80F462
:100030007400D040F00011241FBECFE5D4E0DEBF35
:10004000CDBF10E0A0E6B0E0EEEEFFE102C005900B
:100050000D92A036B107D9F710E0A0E6B0E001C0DC
:100060001D92A236B107E1F7B5C1CACF88EC90E086
:1000700003972FEF8F3F9207D9F70895882311F048
:10008000C49A01C0C498C598409160005091610025
:100090004115510539F488EC90E003972FEF8F3F1D
:1000A0009207D9F726B32870C59A452B39F488EC06
:1000B00090E003973FEF8F3F9307D9F780E090E000
:1000C000222311F081E090E00895089588E081BD39
:1000D000FFCF1F93CF93DF93182FC0E0D0E0B19BE9
:1000E00008C0CE012196815197420CF0EFDFB19903
:1000F000F8CFC0E0D0E0B199E9DF81E090E00C2ECC
:1001000002C0880F991F0A94E2F78123B7DF219676
:10011000C830D10584F3DF91CF911F9108951F93CB
:10012000CF93DF9310E0C0E0D0E0B19908C0CE01DA
:100130002196815197420CF0C9DFB19BF8CFC0E006
:10014000D0E0B19BC3DF80E099DF0C2E02C0880FA6
:10015000991F0A94E2F7182B2196C830D1058CF329
:10016000812F9927DF91CF911F9108950F931F93AE
:10017000CF93DF93082F10E0C0E0D0E081E090E063
:100180000C2E02C0880F991F0A94E2F7802376DFB5
:100190000C2E02C0880F991F0A94E2F7182B2196A3
:1001A000C830D1055CF3812F9927DF91CF911F9142
:1001B0000F910895AF92BF92CF92DF92EF92FF928C
:1001C0000F931F93CF93DF935C017A018B01690139
:1001D0008FEF7FDF80E07DDFBB2717FDBA95A12F72
:1001E000902F8F2D76DF8E2D74DF80E072DFC801B7
:1001F000BB2797FDB095AB2F6CDF80E06ADF80E016
:1002000068DF8C2D66DF80E064DF89DFC82FDD27A3
:1002100086DF9927982F8827C82BD92B209711F094
:10022000CE0116C00894C108D1088FEFC8168FEF11
:10023000D80661F074DFF50181935F010894C1086D
:10024000D108FFEFCF16FFEFDF06A1F780E090E0C7
:10025000DF91CF911F910F91FF90EF90DF90CF90A2
:10026000BF90AF900895CF92DF92EF92FF920F93DD
:100270001F937B018C016A018EEF2BDF80E029DF69
:10028000BB2717FDBA95A12F902F8F2D22DF8E2D22
:1002900020DF8C2D1EDFC801BB2797FDB095AB2F4B
:1002A00018DF8D2D992715DF80E013DF82E011DF45
:1002B00080E00FDF34DF33DF32DF31DF1F910F915A
:1002C000FF90EF90DF90CF900895CF92DF92EF9262
:1002D000FF920F931F937B018C016A018EEFF9DE71
:1002E00080E0F7DEBB2717FDBA95A12F902F8F2D49
:1002F000F0DE8E2DEEDE8C2DECDEC801BB2797FDE7
:10030000B095AB2FE6DE8D2D9927E3DE80E0E1DEB0
:1003100082E0DFDE80E0DDDE1F910F91FF90EF9045
:10032000DF90CF900895CF92DF92EF92FF920F93DC
:100330001F93CF93DF937B018C01EA0169011216B1
:10034000130604F5FE018491282F33272196FE0120
:1003500084919927982F8827282B392BA901C80128
:10036000B70181DF82E090E0A0E0B0E0E80EF91E86
:100370000A1F1B1FAEEFBFEFCA0EDB1E21961C1417
:100380001D0404F3DF91CF911F910F91FF90EF9027
:10039000DF90CF900895CF93DF93CDB7DEB722974C
:1003A0000FB6F894DEBF0FBECDBF89839A838981D3
:1003B0009A81019789839A8389819A818F5F9F4F60
:1003C000B1F722960FB6F894DEBF0FBECDBFDF9116
:1003D000CF910895CDE5D4E0DEBFCDBF00E010E0C1
:1003E0008CE081BB88B3877C88BBC19A82EB87BBDA
:1003F000B9989398929A1695079581E03FDE892BDC
:1004000009F010682EEE0E3E1207A9F76CE4A62E36
:1004100065E0B62E50E8E52E5DE0F52EEA18FB0803
:100420008EEF9FEFE822F922E2E0F0E0EE0EFF1EF1
:1004300019821A829F0140E051ED60E470E0CE0124
:100440000196B8DE89819A818454944491F44CE6F3
:10045000A42E4EE0B42E3CEEE32E3FE1F32EEA183C
:10046000FB088CEF9FEFE822F922E4E0F0E0EE0ECB
:10047000FF1E8CE69EE080589D408E7F02969C0178
:1004800040E85DE060E070ED80E490E04CDF20E16A
:1004900030E046E250E064E776E880E090E043DF59
:1004A00046E850E06DE470E880E090E00EDF80E028
:1004B0005DDE81E090E0909361008093600084E6CF
:1004C00090E069DF80E052DE84E690E064DFC701FF
:1004D000892F992786954ADE84E690E05CDF8701C4
:1004E00016950795802F42DE84E690E054DF80E089
:1004F0003DDE939AC02EE114F10499F0850184E663
:1005000090E049DFF801D4908D2D30DE8C11DEDDD6
:10051000CD2C0894E108F1080F5F1F4FE114F1049E
:1005200071F781E223DE80E021DE80E01FDEFCE661
:10053000AF16FEE0BF0609F4FFCF9298C19AB19BB7
:10054000FECFC4DD80E090E051CD0000EA08EA492A
:100550000C0000000000F710FFF7F4741BC640F415
:1005600070710400FD3F01FD8C01F47402C640F778
:10057000204C808001F44033330AA0F474333313E9
:10058000F720D2FCF50804F474333315F720D6FCB9
:10059000F50808C4DAFCFDAE01F3FEC8DAFC006E13
:1005A000F3FEC9DAFC0071F4C0333303F440333393
:1005B00004800CF440333305F4743333118002F0BB
:1005C00020F4E1FA43C7F3FECA08C6400BA0F47456
:1005D00000EC404000F51009F4C4333309D821E998
:1005E00009F3FED108C640F6EA1BD822E90CF3FE57
:1005F000D208C640F6FDEB01EA0BD825E90FFD0451
:1006000000FD7300FEF8E000F444333309FEF5D832
:10061000DAFCF731D2FCEA08F5D9DAFCF731D6FC7E
:10062000F5D844FCF47D333313E907F475B4C840BE
:10063000EA1DF47D333315E907F47517C840EA0F56
:10064000F47D333317E915F47539C840EA01FEF239
:100650007CD004CC5B80D801E9027C045120713449
:10066000F47D33330EE90FF3FED008C640F6DC0606
:1006700000F45004C640FEF710FFF7A0F44060EC11
:1006800040C0DAFC8001F440333301F474740A088A
:10069000F7204C80F84444F44000D140F5D1C8FF25
:1006A000F6F5D9C8FFFEF231F241A5F4C8120808E8
:1006B000F7489C00E806D857E806EA068503EA02F0
:1006C000850630D833E928F53001D833E921F530F3
:1006D00002F71C01008A09F35894F476BCC940F271
:1006E000023810F53801F51001F53802F51002D086
:1006F00001F264E7CDFEDC0080F471333310806ECC
:10070000D3F85CFCF474C9C7405C04F47433330C54
:100710005C007CFCFEDC6E80A0F471333302D3F805
:100720005CFCF474E7C7405C04F47433330D5C0084
:100730007CFCFEFEF700FEFF2501D002D102F71C73
:100740000200D800E9F2FE8021F444120040800249
:10075000F4441300405CF8F47433330F5CFC7CF811
:10076000D3FCFEF3FECA08C64003FD2F00F4753328
:100770003317F721D6FCA05CF8F4743333165CFC15
:100780007CF8D3FCFEFD6900A0F57E087D0CD3103B
:10079000FE000000FE100000FFFF0008D3FA5C001E
:1007A0004C04F474333311F520FFF4C133330BF3ED
:1007B00004F510FFF47448C840D3F85CFCF474826C
:1007C000C8405C04F4743333125C007CFCFEF8F027
:1007D00000F44414EC40A0F44033330A7C006C0471
:1007E000D306FEA0F4404EC8408005F44414EC400B
:1007F000FE8006F4403333068003F440333307FEB3
:10080000F710FFF7F3FEC808C6402F21D906E816F7
:10081000F47900F000E817F3FEC908C64006F7496E
:100820000806E811EA146106D5064106EA0C8000C4
:10083000F51009EA058502F5110121D906E903FD44
:100840000E005CF8F4743333145CFC7CF8D3FCFECB
:10085000F3FECB08C6402AF4D0333308E802EA217D
:10086000F45104D940F44108D940F4420AD940FD7A
:100870001000F4D104D940F4C108D940F4C20AD917
:1008800040FEF4D004C640F4905B7541F44493CA32
:1008900040F480929541F44096CA40F48096954188
:1008A000C0CCFFC8CEFFF7186004F70000F8F718B7
:1008B000000881F71C6004C0CCFFCACEFFF402928E
:1008C0009541F460C80300C0CCFFC8CEFFF4009689
:1008D000954184A5F3C4F90008F364D404F9100821
:1008E000F354F464007141F200F4758CCA40F47062
:1008F000C80300FD3EFEF474333315F720D6FCF335
:10090000FED308C640F6FE009281008681008E81EB
:1009100000B80100AC0100B60100848000788000BE
:100920008080009C81009081009881009A81008ED7
:100930008100968100B08100A48100AC8100948187
:1009400000888100908100028100F68000FE800016
:10095000B48000A88000B080009080008480008C6B
:100960008000FBFF00F7FF00FBFF00272F082E2F62
:1009700008272F08492F08502F08492F08C185083C
:10098000B98508C185087ED4081ED408D9D4082AA0
:10099000EA08C8E9087CEA08F9EC4002ED40F5EC09
:1009A000407739086F390877390828AE0845B1080B
:1009B00075AE0833AE0850B10880AE08709D08F2DD
:1009C0009D08B69D08709D08F29D08B69D08DBA79E
:1009D00008F0AA0828A808004800000C0000000041
:1009E000812002587C0802A69521FFF83D20800056
:1009F000900918009089180490A9180C429F0005CE
:100A00007D2802A63929FFE0812900007D2803A660
:100A100081210000382100084E8000213821FF8804
:100A2000BC4100003D2080008089180480A9180C7A
:100A30008064000090691808429F00057C6802A647
:100A400038630038906400008065000090691810D9
:100A5000429F00057C6802A6386300A090650000F4
:100A6000812918007D2803A6B841000038210078AC
:100A70004E8000207C0802A69401FFF83821FF88F0
:100A8000BC4100003D208000812900CC28090001E4
:100A9000418200243D20CC00A129206E552906FD6D
:100AA0004182000C380000004800001038000001AE
:100AB00048000008380000023D208000806900F4F2
:100AC0002803000041820008900300183CA0800029
:100AD000806518087C6803A6B841000038210078BA
:100AE0004E80002180010000382100087C0803A608
:100AF0004E8000207C0802A69401FFFC3821FF886C
:100B0000BC4100003C60CC00A083640480A3640866
:100B1000708500404182000C3C002100480000ED3F
:100B2000708500204182000C3C002200480000DD5E
:100B3000708508004182001838000001429F0005BE
:100B40007CA802A638A5FE9C9005000070850400D4
:100B50004182001838000002429F00057CA802A6CE
:100B600038A5FE809005000070851000418200705D
:100B70003C00E300480000953C0025004800008D43
:100B80003C60000060630BB8480000FD480000A90D
:100B900038000002429F00057CA802A638A5FE444A
:100BA000900500004800011D3C0028506000010035
:100BB00090040018380011F5B004FFD03C0000018B
:100BC000600000239004FFDC380000249004FFE064
:100BD0003C6081708401007848000028480000E5EE
:100BE0003CA08000806518107C6803A6B841000016
:100BF000382100784E800021800100003821000457
:100C00007C0803A64E8000203D20CC00900960089F
:100C10003800002E90096000380000019009601C27
:100C20008009601C700000012C0000004082FFF46D
:100C30004E8000207FE802A63D20CC003C600040B2
:100C40006063D8003C80816F6084FFFC38A0119401
:100C50009069600C3C000001900960103C00FE01AE
:100C60004BFFFFA98009602094040004386300044E
:100C700038A5FFFC2C0500004082FFD87FE803A6C2
:100C80004E8000203C8000033884FFFF2C040000CD
:100C90004082FFF83863FFFF2C0300004082FFE82A
:100CA0004E8000207CA903A63863FFFC3884FFFC3B
:100CB00084A3000494A400044200FFF84E800020A6
:100CC0007D2802A6429F00057C6802A6386300507A
:100CD000429F00057C8802A63884FD08800400003D
:100CE000280000024182000C380000004800000C7F
:100CF00038000001386300343C808000900400CC50
:100D00003C80CC006084200038A0000D4BFFFF9990
:100D10007D2803A64E80002000060001476901AD32
:100D200002EA5140001501E6001401E7410C410CB4
:100D300040ED40ED80100000000000008010000039
:100D40000000000000000000110701AE00060101D4
:100D50004B6A01B002F85640001501E6001401E7A5
:100D60004D2B4D6D4D8A4D4C00435A4E00000000F6
:100D700000435A4E00000000013C0144113901B10A
:100D8000F710FFF7F5D9C8FFF4C000D140F7484489
:100D900044E92EF47400D840FD3300F47400D140CF
:100DA000A000F4C4E4E808F334F334F334F500FEAF
:100DB000D434F7901407F474740A08F7204C80F0C8
:100DC00000F47400C640FD0500F4E1B2F5FFF470D4
:100DD00080C000C080FD8051FD5400FD6A0080434A
:100DE000FD4C00FD620081959595959595959580B2
:100DF0004FFD3B00FD5100918044FD3200FD480055
:100E000084FD2B00AAFD4000FD24001092FD380057
:100E1000FD1C00F5100192D002F71D0100E9E688E3
:100E2000FD2500FD0900D821E937F5D9C8FFFEF2FC
:100E30005AF4C783FD00F50380E809D201EED0071C
:100E4000E81FEAEDC482FDFEF25AF4C783FD00F507
:100E50000310E909D201EED007E806EAEDCC82FDE5
:100E6000FEF7140008F474000008F00048000A546B
:100E7000202044726976652056657273696F6E2012
:100E8000580000003D208170C14400083929111824
:100E9000C1640000C00900003D2081703929111C87
:100EA0009421FFD0EDAA002AC1890000EC0B002A92
:100EB0002C0300003D604350EDAD60242F03000182
:100EC000EC006024FDA0681EFC00001ED9A10010EB
:100ED000D8010008800100148121000C7C004A78B0
:100EE000540007FE2F8000004182000C419A001C34
:100EF00048000060409E00083D60418091610020F4
:100F0000C0210020480000D4EC0B02F23D2081708B
:100F1000392911203C004330C1A900003D208170D7
:100F2000EC0A02BA9001001839291158EC00682423
:100F3000FC00001ED801001088010017200000FFEF
:100F40006C0080009001001CC8010018480000805F
:100F50003D20817039291124C18900003D20817014
:100F600039291128C1A900003D2081703929112C8F
:100F7000C0090000EDAD58283D208170EC005028DC
:100F8000816910C8EDAD0332EC000332FDA0681E8C
:100F9000FC00001ED9A1001080010014D80100102F
:100FA000812100145400063E5529442E7D29021447
:100FB0003C0043307D2958AE900100189121001C5F
:100FC0003D208170C801001839291160C9A90000AD
:100FD000FC006828FC200018382100304E800020DA
:100FE0009421FFE0C0E5000039210010C0C50004D5
:100FF000C1640004FC003850C1050008ED2602F26F
:10100000C1A40008C1840000ED480372EC004B3815
:10101000EC005028EDAD0032ED8C0032ED6B00326B
:10102000EDAD682AED8C602AED6B582AEDAD402AB3
:10103000ED8C382AED6B302AD1A10018D181001037
:10104000D1610014382100207CA964AA7CA365AA80
:101050004E8000202F8500327C0802A69421FF409C
:10106000BEC10070DB610098900100C47CBA2B788F
:10107000DB8100A07C7C1B78DBA100A87C9E237810
:10108000DBC100B038000000DBE100B8419D04483E
:101090003D2081703EC08170C92911683D2081705A
:1010A00039291120C0230000C0E900003D208170D3
:1010B00039291134C0430004C3E900003D20817088
:1010C00039291138C0630008C084000038E00000EE
:1010D000C0A400043B200000C0C400083940000048
:1010E000C10900003960000038D6108C39000000BA
:1010F0007D2832147D88342EC0090004ED816028DB
:10110000C1490008EC020028C169000CED435028D9
:101110003D208170ED6B02F239291120EDA00032E3
:10112000EC000172EDAC6B3AED8C013AEDAA6ABAB3
:10113000ED8A61BAC1490000EDAD5828EC0C6B385E
:10114000FF80F800409D0010FC000034EC080024F3
:10115000ED406028FC00509039080018FF804800DE
:10116000409D0024FF8A3800409C001CFF8038907E
:101170007D5B5378FCE0509038E000013B2000019B
:101180007D6A5B78396B00012B8B000140BDFF64E9
:101190003D20817038000003C90911703D20817025
:1011A000392911583EE08170C92900007C0903A645
:1011B0003960000038D710443CA0433039000000AB
:1011C0007D2832148009000C90A100086C0080007A
:1011D0009001000CC80100087D68342E3908001801
:1011E000FC004828C1A90004ED8102F2ED4503721C
:1011F000FC000018EDA20372ED6452FAEC006028C6
:10120000C1890008EC006828EDA30332ED865B3A43
:10121000EC006828EDA06024FC006890FF8040008E
:10122000409D0024FF8D3800409C001CFF803890BA
:101230007D5B5378FCE0689038E000023B200002C0
:101240007D6A5B78396B00014200FF782F870000D0
:101250003C004300419E02803D2081703B00000025
:1012600039291134C3690000C13E00002F870001F5
:10127000C17C0000C15E0004C19C0004ED2959FA44
:10128000C1BE0008C01C0008ED4A61FAD12100105F
:10129000ED0D01FAD1410014D1010018419E00105A
:1012A0002F87000241BE00BC4800020C1C0A001837
:1012B0003936108C3B8100207FE04A147D89042E52
:1012C000C17F00047F84E378C01F0008ED89602897
:1012D000ED6A5828C1BF000CEC080028887F001078
:1012E000ED8C6824EC006824D1810020ED6B68242B
:1012F000D0010028D16100244BFFFB8D3D2081707F
:1013000039291134C1BF0014C0090000FFC0089082
:10131000FF8D000041BE01A83BA100307F84E3782F
:101320007FC5F3787FA3EB784BFFFCB93D2081703C
:101330003929113CC01F0014C3E900007FA4EB78D9
:1013400038BA000138610010EFFF00284BFFFD099B
:10135000C01F0014EFFE07F2EFC1F83A4800016029
:101360001D4A00183D20817039291180381710441A
:101370007D6A4A147D6A4C2EC1AB00043D20817009
:10138000C18B00103929113CEDAA0372C00B000C6F
:10139000ED8A03327FEA0214C3A9000038810030CD
:1013A000ED696AFAC1AB0008EC09603AC18B001420
:1013B000887F0010EDA85B7AD3A10034ED88033A52
:1013C000D1A10030D18100384BFFFABD3D208170A2
:1013D00039291134C1BF0014C0090000FFC00890B2
:1013E000FF8D000040BD0044388100403BA100500B
:1013F0007CBF64AA7CA465AA7FA3EB787FC5F37841
:101400004BFFFBE1C3FF00147FA4EB7838610010B1
:10141000EFFDF82838BA00014BFFFC3DC01F001457
:10142000EFFE07F2EFC1F83A881F00102F8000038B
:10143000409E008C3D208170C1A1003039291140AF
:10144000C0090000FF8D0000419C00443D208170D8
:1014500039291128C0090000FF8D0000419D00308E
:101460003D208170C1A1003839291144C009000014
:10147000FF8D0000419C00183D2081703929112CFE
:10148000C0090000FF8D0000409D000C3B000000E3
:10149000480000103D208170FF60F09083091130FA
:1014A000FCE0E0907F6ADB787F27CB783B60000030
:1014B0004BFFFDB83C0043004800001C9301006056
:1014C000EC1BF028C1A10060EDA0F37AD1A100606F
:1014D0008001006090010060BAC10070800100C40A
:1014E000C0210060CB6100987C0803A6CB8100A0DE
:1014F000CBA100A8CBC100B0CBE100B8382100C01F
:101500004E8000209421FFA07C0802A63D2081701F
:10151000BF610044392911343BA00000DBE10058D1
:101520007F9D2800C3E900007CBF2B7890010064F8
:101530007C7B1B787C9C2378409C01343BC0000062
:101540007F9EF800409C011C6FE980003D604330A5
:101550009121001C6FC080003D208170900100141B
:101560009161001039291158916100186FA0800015
:10157000C94900003D208170C96100103929114816
:10158000C801001890010014FD6B5028FC00502881
:10159000C98100106F60800091610008FD8C5028A7
:1015A0009001000CFC000018C9A10008FD6058184B
:1015B0006F808000FD8060189001001CFDAD5028F8
:1015C000C1290000ED6B00243D2081703929113CB8
:1015D000C10900003D2081703929114CD10100283A
:1015E000ED8C0024C8010018FDA06818FC005028EC
:1015F000EDAD582AFC000018EDAD4828EC00602A3B
:10160000C1890000EDAD4824EC004828D1A100209C
:10161000EC006024ED8D0372D0010024ED80603A6F
:10162000ED8C402AFD806034EDAD03323C6081706A
:10163000EC000332386310383BDE000138810020B3
:1016400038A00000D1A10020D0010024D1810028C1
:101650004BFFFA057F9EF800EFFF082A4BFFFEE8DC
:101660003BBD00017F9DF8004BFFFED0FC00F890D1
:1016700080010064BB610044CBE100587C0803A6F4
:10168000FC00001ED8010030806100343821006069
:101690005463332E60630080546304304E80002016
:1016A000C1640008C1A50004C1850008EDAB037248
:1016B000C0040004EC006B38D0030000C1A400009B
:1016C000C1450000ED8D0332ED6B62B8D1630004BB
:1016D000C0040004C1850004EC0002B2EDAD033883
:1016E000D1A300084E8000202C0500009421FFE0CB
:1016F000BFA10014418200A43D2081703BC0003591
:1017000080C910CC8006000054893032600001503E
:10171000900600009126001093C6000C8006000C75
:10172000700900014082FFF83D2081707C6A1B78BF
:10173000810910CC38E001003BE000003980003125
:101740002F8700047CE93B78409D00083920000485
:1017500093E800107D0B43789188000C800B000CFF
:10176000701D00014082FFF8800B00107CE93851A9
:10177000900A0000394A00044082FFC834A5FF00E7
:10178000800B000038630100388401005400062CEF
:10179000900B00004082FF70BBA100143821002094
:1017A0004E80002088030000398000089421FFE06B
:1017B0002F800000BF4100083BA00008419E00D4DC
:1017C0003D2081703F8081703B4915C83D2081706C
:1017D0003B6911C82F80000A7C09037840BE0014C1
:1017E000380C00203BA00008540C063E480000982E
:1017F0003FC0817038A00000801E19C85526103ADD
:101800007D26D02E7F8500003CE98002409C00644C
:101810003BFC11C85588402E7C06F82E394000004C
:101820007F8A0000409C00343C8081707C0A38AE86
:101830007D2AEA145529063E816410C854003032CE
:101840007D284A147C0959AE394A00017C06F82EDD
:101850007F8A0000419CFFD8801E19C838A500016E
:1018600038E70200390801007F850000419CFFAC89
:10187000880300005400103A7C1B002E7C1D0214CB
:10188000541D063E8C0300012F800000409EFF483F
:10189000BB410008382100204E8000202F85000029
:1018A00038A5FFFF4D9E002038A500017CA903A6A6
:1018B00090830000386300044200FFF84E8000204F
:1018C0007C0802A69421FF903D60CC003D40CC00F6
:1018D0003D20C007616B201C900100746129050048
:1018E0003C00C007614A20243C8029723CA00002D1
:1018F000900B0000608429AA912A000060A5D00006
:101900003C60C007BE4100384BFFFF953D608170D1
:10191000812B10CC3E8000023EE0800E6294580085
:101920008009000062F750003AA000003B00000070
:10193000600001503BC00001900900003C00C00065
:1019400090090010380000359009000C3E40C1C8D5
:101950008009000C700A00014082FFF83C00020080
:10196000816B10CC90090010380000359009000CF4
:10197000800B000C700900014082FFF8800B000012
:101980003C80001F6084CF003C6080025400062C25
:1019900038A03000900B00003FA080014BFFFD4DB0
:1019A0003CE0800283E700043940000080C7000863
:1019B00038A000008107000C38600010388000005B
:1019C0002F850000409E00107C83382E38A0002018
:1019D000386300042F84000040BC00187C0838AE37
:1019E000390800017C0AE9AE394A00014800005874
:1019F0007C063A2E38C600027C0966705400053E0B
:101A00002F8900007D605050409E00147D2838AE24
:101A1000390800013929001248000008392900025C
:101A20002F8900003D6B8001409D001C7D2903A68D
:101A3000880BFFFF396B00017C0AE9AE394A0001CF
:101A40004200FFF07F8AF8005484083C38A5FFFF6D
:101A5000419CFF703CC080013BE00000A3A6002039
:101A6000812600247F9FE800A0A6001E3CE980019B
:101A7000409C0080386000007F832800409C006804
:101A8000388000007D3F2214390000007D2929D6CE
:101A90003D2980027D491A147D2838AE390800019D
:101AA0002F8800015520D1BE552BE7BE980A0000B3
:101AB0005520F7BE9D6A0001552907BE9C0A00010A
:101AC0009D2A0001394A000140BDFFD03884000141
:101AD00038E700022F840007409DFFAC3863000800
:101AE0004BFFFF983BFF00087F9FE8004BFFFF8400
:101AF0003D208170380001003B8911C8A0660002BA
:101B00003D2081707C0903A63BA915C838A00000C0
:101B10007F85180054A4103A7CA72B78419C0010B4
:101B2000A00600047F850000409D0008A0E6000696
:101B3000A166001A7CE33850A3E6001238A5000124
:101B40007C075BD6A1260022A106001EA14600103C
:101B50003D2980017D2938AE7D24E12E7D6059D656
:101B60007C00F9D67CEB38507C0041D67D4751D6BD
:101B70007C0052147C04E92E4200FF983D208170C5
:101B80003EC080013C6080013880005438A00100D4
:101B900093E919C84BFFFB55881600012F80000000
:101BA000409E000C3D2081703AC911043D20CC00BC
:101BB0003F4081706129206E801A10BCA12900006D
:101BC0003BE000007F9F0040552907BC1D29001500
:101BD0003929002099360000409C007C3BA0000081
:101BE0003D2081702F9F00003929118038000000AE
:101BF0007F9D4A143D2081703929104490010010C6
:101C00007F7D4A143C003F807F83E3783881001059
:101C10007F65DB783BFF000190010018409E000CBF
:101C20003C003F00900100104BFFFA793C6081704E
:101C30003863118C7F84E3787C7D1A147F65DB78B0
:101C40004BFFFA61801A10BC3BBD00187F9F00401B
:101C5000419CFF9072A0000740A201843C6080007C
:101C60003880000038A040004BFFFC352F98000161
:101C7000419E00A82B980001419C00182F9800025B
:101C8000419E00A02F980003419E00A4480000A898
:101C90002B950043409D00787E9400D140A0001019
:101CA0003D20817082491150480000083E40C1C863
:101CB0003D20817038E00000812910C45686083C20
:101CC0003D2900057EF732143D0000046108AFFC99
:101CD000394988007EEBBB783508FFFC800B00009B
:101CE000396B0004900A0000394A00044082FFEC7E
:101CF0003C000100600000013400FFFF4082FFFC57
:101D000038E700012B870042409DFFBC3D208170D9
:101D10003A6910F4480000207ED3B37848000018D8
:101D20003D2081703A6900044800000C3D2081701C
:101D30003A6910D07E639B783B1800014BFFFA692B
:101D40003D208170571807BE9249108C3BE000007F
:101D50003FA0CCCC3D20817063BDCCCD38A000022B
:101D60007FBEE816832910C457A0C23E57BDC5FEEA
:101D70001C0001407FA4EB781F7D01407C00F050E7
:101D8000541A083C57DE083C7F43D3787F7B02140B
:101D90004BFFF7757FA4EB78547C801E38A00002BF
:101DA000387A0001577B103A4BFFF75D3C00000387
:101DB0006000FFFF3BFF00017F9F004057C9AFFE5F
:101DC00057C077FE7F9C1B787C004A787F9BC92E8A
:101DD0007FDE037857DE03BE409DFF782B950043DE
:101DE00041BD00BC3C6080003880000038A040004D
:101DF0003B6000004BFFFAA93C608170386310D053
:101E00004BFFF9A53C0043303D208170900100203C
:101E100092A1002439291160C9A900003D208170D8
:101E2000C80100203BE00000FC006828C1A9115453
:101E30003D3700053AE9B0003D208170FC000018F4
:101E4000EC000372FDA00090C80911783D2081705C
:101E5000FC006828FC000018D009108C57E0083CF2
:101E60003B8000007FA0BA147F83E378389B00E8B2
:101E70003B9C000138A000024BFFF68D2B9C027F9B
:101E8000B07D00003BBD0002409DFFE03B7B0001B8
:101E90003BFF02802B9B00EF409DFFC43AB5000141
:101EA0004BFFFDB400000000410028F6C1700000A7
:101EB000000000003F800000BE99999A00000000D9
:101EC000000000003DCCCCCD000000003E99999A66
:101ED0000000000000000078010000000000000089
:101EE0003CA3D70A3ECCCCCD3F80000000000014BC
:101EF0000300000000000000C1C8000041200000F5
:101F00004160000040C00000020000003F68F5C3CF
:101F100041E000004140000040A0000041300000CE
:101F2000020000003F6B851F00000003000000025C
:101F3000C007A50080000000CC00680020416C6C48
:101F400020796F757220626173650A206172652065
:101F500062656C6F6E6720746F20757300000000FF
:101F600020202058656E6F47432076312E30310097
:101F7000204E545343205265766973696F6E203149
:101F80002E30000042C800004120000044FA00004A
:101F9000418000004100000040E000003F4CCCCDFB
:101FA00000000000BF8000003F800000C100000072
:101FB0004000000043A00000C3A00000420E66667F
:101FC0003F678BD8433000008000000043300000A2
:101FD000000000003F847AE147AE147B3FB9999935
:0E1FE0009999999A4041CCCCCCCCCCCDFFCF76
:00000001FF
