:100000001DC036C035C034C033C032C031C030C06E
:100010002FC02EC02DC02CC02BC02AC029C028C084
:1000200027C026C025C08000C4DAFCF474740A0816
:10003000F7204C80F47400D040F0000011241FBE63
:10004000CFE5D4E0DEBFCDBF10E0A0E6B0E0E2E552
:10005000FEE102C005900D92A036B107D9F710E07D
:10006000A0E6B0E001C01D92A236B107E1F7B5C12C
:10007000C7CF88EC90E003972FEF8F3F9207D9F717
:100080000895882311F0C49A01C0C498C59840917E
:100090006000509161004115510539F488EC90E001
:1000A00003972FEF8F3F9207D9F726B32870C59A91
:1000B000452B39F488EC90E003973FEF8F3F93078F
:1000C000D9F780E090E0222311F081E090E00895DC
:1000D000089588E081BDFFCF1F93CF93DF93182F42
:1000E000C0E0D0E0B19B08C0CE012196815197427B
:1000F0000CF0EFDFB199F8CFC0E0D0E0B199E9DFC3
:1001000081E090E00C2E02C0880F991F0A94E2F75C
:100110008123B7DF2196C830D10584F3DF91CF91D9
:100120001F9108951F93CF93DF9310E0C0E0D0E0BC
:10013000B19908C0CE012196815197420CF0C9DFD8
:10014000B19BF8CFC0E0D0E0B19BC3DF80E099DF86
:100150000C2E02C0880F991F0A94E2F7182B2196E3
:10016000C830D1058CF3812F9927DF91CF911F9152
:1001700008950F931F93CF93DF93082F10E0C0E0F3
:10018000D0E081E090E00C2E02C0880F991F0A9405
:10019000E2F7802376DF0C2E02C0880F991F0A94A5
:1001A000E2F7182B2196C830D1055CF3812F9927EF
:1001B000DF91CF911F910F910895AF92BF92CF928F
:1001C000DF92EF92FF920F931F93CF93DF935C0127
:1001D0007A018B0169018FEF7FDF80E07DDFBB2734
:1001E00017FDBA95A12F902F8F2D76DF8E2D74DFFE
:1001F00080E072DFC801BB2797FDB095AB2F6CDFA5
:1002000080E06ADF80E068DF8C2D66DF80E064DFFD
:1002100089DFC82FDD2786DF9927982F8827C82BED
:10022000D92B209711F0CE0116C00894C108D1082F
:100230008FEFC8168FEFD80661F074DFF501819358
:100240005F010894C108D108FFEFCF16FFEFDF066A
:10025000A1F780E090E0DF91CF911F910F91FF9087
:10026000EF90DF90CF90BF90AF900895CF92DF9244
:10027000EF92FF920F931F937B018C016A018EEF27
:100280002BDF80E029DFBB2717FDBA95A12F902F28
:100290008F2D22DF8E2D20DF8C2D1EDFC801BB2786
:1002A00097FDB095AB2F18DF8D2D992715DF80E0D6
:1002B00013DF82E011DF80E00FDF34DF33DF32DF76
:1002C00031DF1F910F91FF90EF90DF90CF90089555
:1002D000CF92DF92EF92FF920F931F937B018C01DD
:1002E0006A018EEFF9DE80E0F7DEBB2717FDBA95D5
:1002F000A12F902F8F2DF0DE8E2DEEDE8C2DECDEDB
:10030000C801BB2797FDB095AB2FE6DE8D2D992751
:10031000E3DE80E0E1DE82E0DFDE80E0DDDE1F9113
:100320000F91FF90EF90DF90CF900895CF92DF92E2
:10033000EF92FF920F931F93CF93DF937B018C017A
:10034000EA0169011216130604F5FE018491282FB3
:1003500033272196FE0184919927982F8827282BEF
:10036000392BA901C801B70181DF82E090E0A0E04C
:10037000B0E0E80EF91E0A1F1B1FAEEFBFEFCA0E5A
:10038000DB1E21961C141D0404F3DF91CF911F91F5
:100390000F91FF90EF90DF90CF900895CF93DF9370
:1003A000CDB7DEB722970FB6F894DEBF0FBECDBF34
:1003B00089839A8389819A81019789839A83898124
:1003C0009A818F5F9F4FB1F722960FB6F894DEBFE8
:1003D0000FBECDBFDF91CF910895CDE5D4E0DEBF54
:1003E000CDBF00E010E08CE081BB88B3877C88BB88
:1003F000C19A82EB87BBB9989398929A1695079504
:1004000081E03FDE892B09F010682EEE0E3E1207C8
:10041000A9F76CE4A62E65E0B62E50E7E52E5EE067
:10042000F52EEA18FB088EEF9FEFE822F922E2E0B2
:10043000F0E0EE0EFF1E19821A829F0140E051ED9E
:1004400060E470E0CE010196B8DE89819A8184541F
:10045000944491F440E5A42E4FE0B42E30E5E32E11
:100460003EE1F32EEA18FB088EEF9FEFE822F92217
:10047000E2E0F0E0EE0EFF1E8FE49FE080579E402A
:100480008E7F02969C0140E75EE060E070ED80E4C4
:1004900090E04CDF25E130E046E250E064E776E8AA
:1004A00080E090E043DF46E850E06DE470E880E0F3
:1004B00090E00EDF80E05DDE81E090E090936100EF
:1004C0008093600084E690E069DF80E052DE84E69D
:1004D00090E064DFC701892F992786954ADE84E67C
:1004E00090E05CDF870116950795802F42DE84E659
:1004F00090E054DF80E03DDE939AC02EE114F104D9
:1005000099F0850184E690E049DFF801D4908D2DC3
:1005100030DE8C11DEDDCD2C0894E108F1080F5F90
:100520001F4FE114F10471F784E690E037DF81E2B8
:1005300020DE80E01EDE80E01CDE9298C19AB19B36
:10054000FECFC7DD80E090E083CC0000EA08EA4DF2
:1005500000000C000000F710FFF7F4741BC640F415
:1005600070590500FDA101FDEE01F47402C640F7CB
:10057000204C808001F44033330AA0F474333313E9
:10058000F720D2FCF50804F474333315F720D6FCB9
:10059000F50808C4DAFCF7140008FC0C02F3FEC8E6
:1005A000DAFC005DF3FEC9DAFC0065F4C033330306
:1005B000F440333304800CF440333305F4743333A4
:1005C000118002F0208001F444333301A0F4740060
:1005D000EC404000F51009F47433330920F4400472
:1005E000C640F8AD2B00F4E1D543C7F474333309AA
:1005F00020F748AD2BE803FC9800F4C004C6400087
:10060000FEF5D8DAFCF5D844FCF47506C940EA29B1
:10061000F5D9DAFCF5D844FCF731D6FCF47D333358
:1006200015E907F47579C840EA0FF47D333317E90B
:1006300015F4759BC840EA01FEF27CD004CC5B80C7
:10064000D801E9027C0451207134F47D33330EE982
:100650000FF3FED009C640F6DC0600F45006C64093
:10066000FEF2F9F4D2A0CA407104FD1C00F249FD6B
:1006700017005104F236FEF3FED309C640F67104AA
:10068000FD0600F451A0CA40FEF721BCFFF731BCC3
:10069000FFFED828E8E1F748A800E8C5F748AB0016
:1006A000E8BFF748E100E8B9F748FE01E90BF5318A
:1006B00002D901E903FD3E00FED821E909F3FED18C
:1006C00009C640F6EA27D825E907FD2000FD2600E7
:1006D000FED827E920FD1500FD1B00F84444F44036
:1006E00000D140F5D1C8FFF6F5D9C8FFFEF8E0000B
:1006F000F444333309FEF710FFF7A0C0DAFCF474BA
:10070000740A08F7204C80FEF231F241A5F4C812B9
:100710000808F7489C00E806D857E806EA0685036B
:10072000EA02850630D833E928F53001D833E921CB
:10073000F53002F71C01008A09F35894F476A4CA34
:1007400040F2023810F53801F51001F53802F510C5
:1007500002D001F264E7CDFEDC0080F47133331087
:10076000806ED3F85CFCF4742BC8405C04F47433E2
:10077000330C5C007CFCFEDC6E80A0F47133330231
:10078000D3F85CFCF47449C8405C04F47433330D52
:100790005C007CFCFEFEF700FEFF2501D002D102CA
:1007A000F71C0200D800E9F2FE8021F44412004058
:1007B0008002F4441300405CF8F47433330F5CFCA3
:1007C0007CF8D3FCFEF3FECA09C64003FD2D00F4FD
:1007D00075333317F721D6FCA05CF8F47433331665
:1007E0005CFC7CF8D3FCFEFD5900A0F57E087D0C76
:1007F000D310FE00FE100000FFFF0008D3FA5C00DB
:100800004C04F474333311F520FFF4C133330BF38C
:1008100004F510FFF474A8C840D3F85CFCF474E24B
:10082000C8405C04F4743333125C007CFCFEF8F0C6
:1008300000F44414EC40A0F44033330A7C006C0410
:10084000D306FE8006F4403333068003F44033338E
:1008500007FEF710FFF7F3FEC809C6402F21D9069F
:10086000E816F47900F000E817F3FEC909C640065F
:10087000F7490806E811EA146106D5064106EA0CB4
:100880008000F51009EA058502F5110121D906E974
:1008900003FD0E005CF8F4743333145CFC7CF8D375
:1008A000FCFEF3FECB09C6402FF4500CD940F4D027
:1008B000333308E802EA21F45104D940F44108D95D
:1008C00040F4420AD940FD1000F4D104D940F4C1EB
:1008D00008D940F4C20AD940FEF3FECC09C64078DC
:1008E000F4D006C640F480007141F4810271419455
:1008F000F47885A100E961F3FED409C640F6D3F887
:10090000F46444714120C0CCFFC8CEFFF33CF33CFB
:100910004C04F53C04F51C01F53C05F51C02F530D2
:1009200001F51C05F53002F51C046C04F33CF33CA6
:100930001C7C00F450A0CA40D308F82121F4408266
:10094000CB40F4D006C640F8C233F4001C7141F825
:100950009F3DF4001E7141FEF4D00CD9406008D8D0
:1009600040E901FEF4D006C640F4905B7541F444C2
:100970007BCB40F480929541F4407ECB40F480964E
:100980009541C0CCFFC8CEFFF7186004F70000F80F
:10099000F718000881F71C6004C0CCFFCACEFFF432
:1009A00002929541F460B00300C0CCFFC8CEFFF4C2
:1009B0000096954184A5F3C4F90008F364D404F9C2
:1009C0001008F354F464007141F200F47574CB40E4
:1009D000F470B00300FDBEFDF474333315F720D678
:1009E000FCF3FED309C640F6FE0000000000000044
:1009F0009281008681008E8100B80100AC0100B6B2
:100A000001008480007880008080009C81009081BB
:100A1000009881009A81008E8100968100B081004B
:100A2000A48100AC81009481008881009081000243
:100A30008100F68000FE8000B48000A88000B080B5
:100A4000009080008480008C8000FBFF00F7FF0096
:100A5000FBFF00272F082E2F08272F08492F0850AB
:100A60002F08492F08C18508B98508C185087ED49B
:100A7000081ED408D9D4082AEA08C8E9087CEA087C
:100A8000F9EC4002ED40F5EC407739086F39087712
:100A9000390828AE0845B10875AE0833AE0850B124
:100AA0000880AE08709D08F29D08B69D08709D08EC
:100AB000F29D08B69D08DBA708F0AA0828A8080040
:100AC00048000010000000008120025800000000D3
:100AD0007C0802A69521FFF83D20800090091800AF
:100AE0009089180490A9180C429F00057D2802A641
:100AF0003929FFDC812900007D2803A6812100001F
:100B0000382100084E8000213821FF88BC410000B8
:100B10003D2080008089180480A9180C80640000A2
:100B200090691808429F00057C6802A63863003867
:100B3000906400008065000090691810429F0005D5
:100B40007C6802A6386300A0906500008129180027
:100B50007D2803A6B8410000382100784E8000208F
:100B60007C0802A69401FFF83821FF88BC410000F0
:100B70003D208000812900CC280900014182002409
:100B80003D20CC00A129206E552906FD4182000C94
:100B9000380000004800001038000001480000083C
:100BA000380000023D208000806900F42803000026
:100BB00041820008900300183CA08000806518085E
:100BC0007C6803A6B8410000382100784E800021DF
:100BD00080010000382100087C0803A64E80002018
:100BE0007C0802A69401FFFC3821FF88BC4100006C
:100BF0003C60CC00808364045484843E80A36408F9
:100C0000708500404182000C3C002100480000C17A
:100C10007085080041820020429F00057CA802A642
:100C200038A5FEA8800500006800000370000002DF
:100C3000900500007085001040820028708510002B
:100C400040820030429F00057CA802A638A5FE84A1
:100C5000800500002C00000040820018480000447D
:100C60003C6080003C802BAD6084C0DE908300003F
:100C70003C00E300480000593C00270048000051B8
:100C80003C60000060630FA0480000ED4800006D6C
:100C9000480000B93C608170840100784800002859
:100CA000480001113CA08000806518107C6803A6F4
:100CB000B8410000382100784E80002180010000FA
:100CC000382100047C0803A64E8000203D20CC0083
:100CD000900960083800002E90096000380000017B
:100CE0009009601C8009601C700000012C0000004D
:100CF0004082FFF44E8000207FE802A63D20CC0019
:100D00003C6000406063D7FC3C80816F6084FFF8EA
:100D100038A00F049069600C3C000001900960103D
:100D20003C00FE014BFFFFA98009602094040004F1
:100D30003863000438A5FFFC2C0500004082FFD872
:100D40007FE803A64E8000203C80CC0060843024E5
:100D500080A4000054A507B860A5000190A400007D
:100D600080A4000060A5000460A5000190A400001C
:100D70004E8000203C8000033884FFFF2C040000DC
:100D80004082FFF83863FFFF2C0300004082FFE839
:100D90004E8000207CA903A63863FFFC3884FFFC4A
:100DA00084A3000494A400044200FFF84E800020B5
:100DB0007D2802A6429F00057C6802A63863005089
:100DC000429F00057C8802A63884FD008004000054
:100DD000280000024182000C380000004800000C8E
:100DE00038000001386300343C808000900400CC5F
:100DF0003C80CC006084200038A0000D4BFFFF99A0
:100E00007D2803A64E80002000060001476901AD41
:100E100002EA5140001501E6001401E7410C410CC3
:100E200040ED40ED80100000000000008010000048
:100E30000000000000000000110701AE00060101E3
:100E40004B6A01B002F85640001501E6001401E7B4
:100E50004D2B4D6D4D8A4D4C00435A4E0000000005
:100E600000435A4E00000000013C0144113901B119
:100E7000F710FFF7F5D9C8FFA0F44060EC40F4C0CC
:100E800000D140F7484444E91AF47400D840FD1FEB
:100E900000F47400D140A000F474740A08F7204CE8
:100EA00080F000F47400C640FD0500F4E1C0F5FFD9
:100EB000F47080C000C080FD8051FD5000FD6600D0
:100EC0008043FD4800FD5E00F90001F341804FFDC5
:100ED0003B00FD5100918044FD3200FD480084FD3F
:100EE0002B00AAFD4000FD24001092FD3800FD1CDF
:100EF00000F5100192D002F71D0100E9E688FD25FA
:100F000000FD0900D821E937F5D9C8FFFEF25AF4EF
:100F1000C783FD00F50380E809D201EED007E81F82
:100F2000EAEDC482FDFEF25AF4C783FD00F503101A
:100F3000E909D201EED007E806EAEDCC82FDFEF425
:100F400074740A08F7204C80F474000008F0000064
:100F500048000654202044726976652056657273F5
:100F6000696F6E2058007C6000A64E8000207C6077
:100F700001244E80002000003D20817081290DE871
:100F80008009000060000150900900004E800020A0
:100F90003D20817081290DE8800900005400062C55
:100FA000900900004E8000203D20817038000035FF
:100FB00081290DE8906900109009000C8009000C4F
:100FC000700B00014082FFF84E8000202C040000CE
:100FD0004D8200203D20817038E0000081490DE8FD
:100FE000390000312F8400047C892378409D00085B
:100FF0003920000490EA00107D4B5378910A000CD0
:10100000800B000C700600014082FFF8800B00107E
:101010007C89205190030000386300044082FFC89F
:101020004E8000202F85000038A5FFFF4D9E002038
:1010300038A500017CA903A6908300003863000452
:101040004200FFF84E800020380000003D208170F3
:101050003C60C0F03C8010803CA00002B0091750FA
:10106000606305003D2081706084108060A5D00021
:10107000B0090DF04BFFFFB07C0802A69421FFD011
:101080003D208170BEE1000C7C7F1B789001003414
:10109000A00917502B8001CB40BD00084BFFFFADCE
:1010A000881F00002F800000419E01003D208170BC
:1010B0003D8081703B0913503D2081703B290F50CA
:1010C0003F8081703B4000003F6081702F80000AAC
:1010D00040BE0018A12C1750B35C0DF03929001840
:1010E000B12C1750480000B83D20817038C0000076
:1010F000814917545407103A7D27C02E3FA08170B4
:101100007F865000A17C0DF03D098102A00C175094
:10111000409C00701C0001403BDB0F503D20817063
:101120007C87F02E80690DF47D4553787D605A14DC
:10113000394000007F8A2000409C00347D27F02E3B
:101140005560103A7D2903A67D201A147C0A40AE12
:10115000394A00015400A814640010806000108017
:1011600090090000392900044200FFE438C600015C
:10117000390802007F862800396B0140419CFFB48A
:10118000881F0000A13D0DF05400103A7C19002E7C
:101190007D2902143929FFFEB13D0DF08C1F00019D
:1011A0002F800000409EFF283D208170A00917502D
:1011B0002B8001CB409D001880010034BAE1000C67
:1011C000382100307C0803A64BFFFE8080010034EC
:1011D000BAE1000C382100307C0803A64E800020C4
:1011E0007C0802A69421FFF0390000009001001451
:1011F0005500103A7D601A14812B00902F89000051
:1012000041BE00347C03002E3929FFFF814B00488A
:101210007D630214419E0020392900017D2903A627
:10122000880B0000396B0001980A0000394A000160
:101230004200FFF0390800012F880011409DFFB4E3
:10124000812300DC816300D82F8900003929FFFF4A
:10125000419E001C39290001380000007D2903A6A9
:10126000980B0000396B00014200FFF8806300E03A
:101270007C6903A64E8004218001001438210010EF
:101280007C0803A64E8000209421FFE038810008EE
:101290007C0D42E67D0C42E67D2D42E67F804800D3
:1012A000409EFFF03CA000013CC0CF209121000CEB
:1012B00060A59E409101000860C649A17D2D42E6CF
:1012C0007C0C42E67D6D42E67F8958007D480050E7
:1012D0007CE800107CE739107CE700D0409EFFE0FE
:1012E000800400047D2A30167C0058507C07005092
:1012F0007C0029D655298BFE7C004A147F8018403B
:10130000419CFFBC382100204E8000203D20817090
:101310003800002E81290DEC3940000090090000B2
:1013200038000000900900043800000190690008AE
:101330009089000C90A9001090C9001490A9001881
:101340009009001C8009001C7008000141820024E3
:101350003D6000FF616BFFFF394A00017F8A584002
:10136000419D00108009001C700800014082FFECC4
:101370003D20817081290DEC806900005463F7FEE7
:101380004E8000203D2081703800002E81290DEC18
:101390003D60A800616B00403940000090090000EA
:1013A000390000403CE003FF38000003914900048D
:1013B0007D264B789169000860E7FFFE9149000C9B
:1013C000396000019109001090690014910900181A
:1013D0009009001C800600007F0B3800396B00016B
:1013E0007009000441A2000C386000014E8000200A
:1013F000800600182F80000040BE000C38600000FE
:101400004E8000204099FFD04E8000203D2081700A
:101410003800002E81290DEC54A5F0BE3D0000F0EF
:1014200039600001900900003800000090090004B4
:101430003C00A800900900083800000390A9000CA7
:101440007D2A4B789089001061080FFF9069001485
:10145000908900189009001C812A00007F0B400031
:10146000396B000171200004800A00182F800000F1
:1014700041A2000C386000014E80002040BE000CEC
:10148000386000004E8000204099FFD04E80002040
:1014900038000010396000007C0903A65569103A35
:1014A000396B00017C09182E3D29CC0090092000E1
:1014B0004200FFEC380000103D2081707C0903A63B
:1014C00039490E78396000005569103A396B0001CE
:1014D0007C09502E3D29CC00900920404200FFECB1
:1014E0003D60CC003D40CC003D20C0F0616B201C35
:1014F000614A2024612905003C00C0F0900B0000E7
:10150000912A00004E8000207C0802A69421FFF062
:101510003D2080003D608170612930E0396B0CE82E
:101520009001001438000006B009000038000038AF
:101530003D0080007C0903A693E1000C61080020B7
:10154000906B00AC394000005540103A394A000118
:101550007D2B002E7D28012E4200FFF02F830001FD
:10156000409E001C3C60817038630EB84BFFFB0D41
:101570003C60817038630E38480000183C60817010
:1015800038630EC04BFFFAF53C60817038630DF88C
:101590008001001483E1000C382100107C0803A6B0
:1015A0004BFFFEF07C0802A63C6080003CA0005B84
:1015B0009421FFC060A5FFFF388000006063000435
:1015C000BF61002C900100444BFFFA5D3D2080007C
:1015D0003C004C0061290C00600000649009000090
:1015E0003FC081024BFFF9953C60C0004BFFF9BD45
:1015F0003FE0001F3C6002003BA030004BFFF9AD14
:101600004BFFF99163FFCF004BFFF97157E3303285
:101610004BFFF9997FC3F378388001003BDE01006E
:101620004BFFF9AD4BFFF96D37BDFF003BFF0100EC
:101630004082FFD83CE081023FC0810183E7000483
:101640003940000080C7000838A000008107000C66
:1016500038600010388000002F850000409E001088
:101660007C83382E38A00020386300042F840000CB
:1016700040BC00187C0838AE390800017C0AF1AE85
:10168000394A0001480000587C063A2E38C600024C
:101690007C0966705400053E2F8900007D60505023
:1016A000409E00147D2838AE390800013929001207
:1016B00048000008392900022F8900003D6B810194
:1016C000409D001C7D2903A6880BFFFF396B00019C
:1016D0007C0AF1AE394A00014200FFF07F8AF8002F
:1016E0005484083C38A5FFFF419CFF703CC0810139
:1016F0003BE00000A3C60020812600247F9FF0006D
:10170000A0A6001E3CE98101409C008038600000DA
:101710007F832800409C0068388000007D3F2214B1
:10172000390000007D2929D63D2981027D491A14FE
:101730007D2838AE390800012F8800015520D1BE20
:10174000552BE7BE980A00005520F7BE9D6A0001A0
:10175000552907BE9C0A00019D2A0001394A000153
:1017600040BDFFD03884000138E700022F84000715
:10177000409DFFAC386300084BFFFF983BFF00081B
:101780007F9FF0004BFFFF843D20817038000100F7
:101790003BA90F50A3E600023D2081707C0903A6FF
:1017A0003BC9135038A000007F85F80054A3103ABD
:1017B0007CA72B78419C0010A00600047F850000C8
:1017C000409D0008A0E60006A166001A7CFF385084
:1017D000A086001238A500017C075BD6A126002256
:1017E000A106001EA14600103D2981017D2938AEC9
:1017F0007D23E92E7D6059D67C0021D67CEB3850C4
:101800007C0041D67D4751D67C0052147C03F12EDA
:101810004200FF983D208170386000019089175484
:101820004BFFFCE94BFFF8253D208000812900009B
:101830003C002BAD6000C0DE7F89000040BE00C0D0
:101840003C00CC003BA00000600068143D2081708B
:1018500090090DE863BDA0003FC081203FE081708A
:1018600057A87EBE813F0DE857ABBA7E57AACFBEC0
:1018700080090000600000C090090000380000529C
:1018800098010008990100099961000A9941000B2B
:10189000806100084BFFF715813F0DE857A0067ED9
:1018A00090090010380000059009000C8009000C18
:1018B000700B00014082FFF8386000003BBD020061
:1018C0004BFFF6E97FC3F378388002003BDE02006D
:1018D0004BFFF6FD3C000008813F0DE860006FFF04
:1018E0007F9D0000800900005400066E90090000F2
:1018F000409DFF6C3C6081204BFFF8E93C608170AB
:1019000038630EC84BFFF775480000084BFFF97DA0
:101910003C60C0004BFFFA712F830000386001F477
:10192000409EFFEC3880000038A0000038C0000066
:101930003FA081703C6028003BDD0F004BFFF9D1D8
:101940003C60C0004BFFFA413B8000007FC3F3784E
:101950003880005038A000403F6081704BFFFAB1E2
:10196000939E0040801D0F003BE000002F80000090
:1019700038000048B01B1750419E007C809E00003C
:10198000381F0001541F043E38C000005484F0AEDC
:1019900038A000203C6028004BFFF9753C60C00077
:1019A0004BFFF9E53880004038A000203C60C08043
:1019B0004BFFFA5D3D20C0803C002E2E61290014B3
:1019C00060002E003C60C0809009000038000015C7
:1019D0003D208170B0090DF04BFFF6A13C60817095
:1019E00038630EC44BFFF695841E00042F80000060
:1019F0004BFFFF8857FE043E2F9E0000409E0010C4
:101A0000380000003BC00001901D0F003D20CC00BD
:101A100061296404800900003D20CC00612964082C
:101A2000541D843E73A00008800900004182000C10
:101A3000381CFFFF541C043E73A900044182000CB3
:101A4000381C0001541C043E380000006000FFFFF9
:101A50007F9C000040BE000C381EFFFF541C043E5B
:101A60007F80F278386000647C0BFE707D600278C5
:101A70007C0058507C00FE707F9C00384BFFF80DB6
:101A800073A0010041A2011C3D2081705780103AD3
:101A900039290F0038C000007C89002E38A00000D2
:101AA0003C6028003FA0C0105484F0AE4BFFF861AA
:101AB000386001F44BFFF7D53C60C0004BFFF8C91C
:101AC0004BFFF5893880046038A000003C60C010EE
:101AD0004BFFF93D3C60817038630EEC4BFFF59D88
:101AE000887D045B68630002200300007C60191499
:101AF0004BFFFA193880002038A024403C60C01009
:101B00004BFFF90D809D001438A024603C608120BB
:101B10003884001F548400344BFFF8F583BD001057
:101B20003861000C388100107FA903A638A1001489
:101B30004E8004218001000C3C60817038630C9C55
:101B40007C0903A64E800421380000003881001C67
:101B50009001002038A10020900100183861001881
:101B60009001001C800100107C0903A64E80042116
:101B70002F830000419E0018806100188081001CA6
:101B800080A100204BFFF8894BFFFFC080010014AB
:101B90007C0903A64E8004217C6803A64E800021A8
:101BA0003BE00000380000487F9FF040B01B17501A
:101BB00040BCFE5C7F9FE0003C60817038630EF8A3
:101BC000419E000C3C60817038630EFC4BFFF4AD0D
:101BD000381F0001541F043E3D2081707F9FF0405C
:101BE00038000000B0090DF04BFFFFC89421FF90B2
:101BF0009081000C90A1001090C1001490E1001899
:101C00009101001C91210020914100244086002474
:101C1000D8210028D8410030D8610038D881004050
:101C2000D8A10048D8C10050D8E10058D9010060BF
:101C3000382100704E8000200D15EA5E0000000182
:101C4000018000000000000300000000816FFFF031
:101C5000817FE8C0000000240000000000000000B8
:101C60000000000000000000000000000000000074
:101C7000000000000000000038A000407C6802A6C0
:101C80009065000C80650008646380007C6803A692
:101C9000386000307C6001244E800020000000008D
:101CA0000000000000000000000000000000000034
:101CB0000000000000000000000000000000000024
:101CC0000000000000000000000000000000000014
:101CD0000000000000000000015D47F8F824836068
:101CE00000000000000000010000000000000000F3
:101CF0000000000000000000814B7F50815D47F82C
:101D0000000000008180000001800000817FC8C0C9
:101D100009A7EC801CF7C58000000000000000004F
:101D200000000000000000000000000000000000B3
:101D30000000000000000000CC006800CC00600043
:101D400000200000C0F0A5000F060001476901ADAA
:101D500002EA51400003001800020019410C410C36
:101D600040ED40ED00000000000000000000000019
:101D70000000000000000000110701AE100100018A
:101D8000000100010001000111F501014B6A01B0E1
:101D900002F8564000010023000000244D2B4D6D39
:101DA0004D8A4D4C000000000000000000000000C3
:101DB00000000000013C0144113901B11001000193
:101DC000000100010001000100000000000000000F
:101DD000285001001AE771F00DB4A57400C1188EE7
:101DE000C4C0CBE2FCECDECF13130F0800080C0FCD
:101DF00000FF00000000000002800000000000FF63
:101E000000FF00FF00FF00FF50414C0A00000000EF
:101E10004E5453430A00000058656E6F47432053E9
:101E200068656C6C2076312E30350A2D2D2D2D2DC8
:101E30002D2D2D2D2D2D2D2D2D0A00000A4C6F61DD
:101E400064696E672E2E2E00400A000020200A00D2
:021E5000FFCFC2
:00000001FF
