:100000001DC036C035C034C033C032C031C030C06E
:100010002FC02EC02DC02CC02BC02AC029C028C084
:1000200027C026C025C08000C4DAFCF474740A0816
:10003000F7204C80F47400D040F0000011241FBE63
:10004000CFE5D4E0DEBFCDBF10E0A0E6B0E0EEEF3C
:10005000FDE102C005900D92A036B107D9F710E07E
:10006000A0E6B0E001C01D92A236B107E1F7B5C12C
:10007000C7CF88EC90E003972FEF8F3F9207D9F717
:100080000895882311F0C49A01C0C498C59840917E
:100090006000509161004115510539F488EC90E001
:1000A00003972FEF8F3F9207D9F726B32870C59A91
:1000B000452B39F488EC90E003973FEF8F3F93078F
:1000C000D9F780E090E0222311F081E090E00895DC
:1000D000089588E081BDFFCF1F93CF93DF93182F42
:1000E000C0E0D0E0B19B08C0CE012196815197427B
:1000F0000CF0EFDFB199F8CFC0E0D0E0B199E9DFC3
:1001000081E090E00C2E02C0880F991F0A94E2F75C
:100110008123B7DF2196C830D10584F3DF91CF91D9
:100120001F9108951F93CF93DF9310E0C0E0D0E0BC
:10013000B19908C0CE012196815197420CF0C9DFD8
:10014000B19BF8CFC0E0D0E0B19BC3DF80E099DF86
:100150000C2E02C0880F991F0A94E2F7182B2196E3
:10016000C830D1058CF3812F9927DF91CF911F9152
:1001700008950F931F93CF93DF93082F10E0C0E0F3
:10018000D0E081E090E00C2E02C0880F991F0A9405
:10019000E2F7802376DF0C2E02C0880F991F0A94A5
:1001A000E2F7182B2196C830D1055CF3812F9927EF
:1001B000DF91CF911F910F910895AF92BF92CF928F
:1001C000DF92EF92FF920F931F93CF93DF935C0127
:1001D0007A018B0169018FEF7FDF80E07DDFBB2734
:1001E00017FDBA95A12F902F8F2D76DF8E2D74DFFE
:1001F00080E072DFC801BB2797FDB095AB2F6CDFA5
:1002000080E06ADF80E068DF8C2D66DF80E064DFFD
:1002100089DFC82FDD2786DF9927982F8827C82BED
:10022000D92B209711F0CE0116C00894C108D1082F
:100230008FEFC8168FEFD80661F074DFF501819358
:100240005F010894C108D108FFEFCF16FFEFDF066A
:10025000A1F780E090E0DF91CF911F910F91FF9087
:10026000EF90DF90CF90BF90AF900895CF92DF9244
:10027000EF92FF920F931F937B018C016A018EEF27
:100280002BDF80E029DFBB2717FDBA95A12F902F28
:100290008F2D22DF8E2D20DF8C2D1EDFC801BB2786
:1002A00097FDB095AB2F18DF8D2D992715DF80E0D6
:1002B00013DF82E011DF80E00FDF34DF33DF32DF76
:1002C00031DF1F910F91FF90EF90DF90CF90089555
:1002D000CF92DF92EF92FF920F931F937B018C01DD
:1002E0006A018EEFF9DE80E0F7DEBB2717FDBA95D5
:1002F000A12F902F8F2DF0DE8E2DEEDE8C2DECDEDB
:10030000C801BB2797FDB095AB2FE6DE8D2D992751
:10031000E3DE80E0E1DE82E0DFDE80E0DDDE1F9113
:100320000F91FF90EF90DF90CF900895CF92DF92E2
:10033000EF92FF920F931F93CF93DF937B018C017A
:10034000EA0169011216130604F5FE018491282FB3
:1003500033272196FE0184919927982F8827282BEF
:10036000392BA901C801B70181DF82E090E0A0E04C
:10037000B0E0E80EF91E0A1F1B1FAEEFBFEFCA0E5A
:10038000DB1E21961C141D0404F3DF91CF911F91F5
:100390000F91FF90EF90DF90CF900895CF93DF9370
:1003A000CDB7DEB722970FB6F894DEBF0FBECDBF34
:1003B00089839A8389819A81019789839A83898124
:1003C0009A818F5F9F4FB1F722960FB6F894DEBFE8
:1003D0000FBECDBFDF91CF910895CDE5D4E0DEBF54
:1003E000CDBF00E010E08CE081BB88B3877C88BB88
:1003F000C19A82EB87BBB9989398929A1695079504
:1004000081E03FDE892B09F010682EEE0E3E1207C8
:10041000A9F73CE4C32E35E0D32E2CE4E22E2EE0E7
:10042000F22EEC18FD088EEF9FEFE822F922E2E0B1
:10043000F0E0EE0EFF1E19821A829F0140E051ED9E
:1004400060E470E0CE010196B8DE89819A8184541F
:10045000944491F490EEC92E9EE0D92E8CEFE82EB4
:100460008DE1F82EEC18FD088EEF9FEFE822F922BF
:10047000E2E0F0E0EE0EFF1E80EE9EE08C549E4027
:100480008E7F02969C014CE45EE060E070ED80E4BB
:1004900090E04CDF25E130E046E250E064E776E8AA
:1004A00080E090E043DF46E850E06DE470E880E0F3
:1004B00090E00EDF80E05DDE81E090E090936100EF
:1004C0008093600084E690E069DF80E052DE84E69D
:1004D00090E064DFC701892F992786954ADE84E67C
:1004E00090E05CDFC7019695879543DE84E690E057
:1004F00055DF80E03EDE939AE114F10479F0860145
:1005000084E690E04BDFF801849133DE0894E10843
:10051000F1080F5F1F4FE114F10491F784E690E0BA
:100520003DDF81E226DE80E024DE80E022DE92985C
:10053000C19AF0EECF16FEE0DF0609F49398B19B66
:10054000FECFC7DD80E090E059CC0000EA0EEA5310
:100550000C0000000000000000000000F710FFF792
:10056000F47421C640F470630500FDAD01FDFA018D
:10057000F47402C640F7204C808001F44033330A03
:10058000A0F474333313F720D2FCF50804F4743369
:100590003315F720D6FCF50808C4DAFCF714000878
:1005A000FC1802F3FEC8DAFC005DF3FEC9DAFC00B9
:1005B00065F4C0333303F440333304800CF4403328
:1005C0003305F4743333118002F0208001F4443396
:1005D0003301A0F47400EC404000F51009F47433CA
:1005E000330920F4400AC640F8AD2B00F4E1CF43B4
:1005F000C7F47433330920F748AD2BE803FC9800A7
:10060000F4C00AC64000FEF5D8DAFCF5D844FCF484
:10061000751AC940EA29F5D9DAFCF5D844FCF73156
:10062000D6FCF47D333315E907F4758BC840EA0F27
:10063000F47D333317E915F475ADC840EA01FEF2D5
:100640007CD004CC5B80D801E9027C045120713459
:10065000F47D33330EE90FF3FED008C640F6DC0616
:1006600000F45004C640FEF2F9F4D20CC640710406
:10067000FD1C00F249FD17005104F236FEF3FED3D3
:1006800008C640F67104FD0600F4510CC640FEF7A2
:1006900021BCFFF731BCFFFED828E8E1F748A800ED
:1006A000E8C5F748AB00E8BFF748E100E8B9F7480C
:1006B000FE01E90BF53102D901E903FD3E00FED848
:1006C00021E909F3FED108C640F6EA27D825E90753
:1006D000FD2000FD2600FED827E920FD1500FD1BAA
:1006E00000F84444F44000D140F5D1C8FFF6F5D9F4
:1006F000C8FFFEF8E000F444333309FEF710FFF7BB
:10070000A0C0DAFCF474740A08F7204C80F440604E
:10071000EC408001F440333301FEF231F241A5F4A4
:10072000C8120808F7489C00E806D857E806EA0609
:100730008503EA02850630D833E928F53001D8333D
:10074000E921F53002F71C01008A09F35894F47688
:10075000B4CA40F2023810F53801F51001F538023C
:10076000F51002D001F264E7CDFEDC0080F47133B5
:100770003310806ED3F85CFCF4743DC8405C04F424
:100780007433330C5C007CFCFEDC6E80A0F47133AF
:100790003302D3F85CFCF4745BC8405C04F474333B
:1007A000330D5C007CFCFEFEF700FEFF2501D0024D
:1007B000D102F71C0200D800E9F2FE8021F44412B5
:1007C00000408002F4441300405CF8F47433330FAB
:1007D0005CFC7CF8D3FCFEF3FECA08C64003FD2F88
:1007E00000F475333317F721D6FCA05CF8F47433AA
:1007F00033165CFC7CF8D3FCFEFD5B00A0F57E08A4
:100800007D0CD310FE000000FE100000FFFF00086A
:10081000D3FA5C004C04F474333311F520FFF4C1B7
:1008200033330BF304F510FFF474BCC840D3F85C09
:10083000FCF474F6C8405C04F4743333125C007C3E
:10084000FCFEF8F000F44414EC40A0F44033330A0A
:100850007C006C04D306FE8006F44033330680032C
:10086000F440333307FEF710FFF7F3FEC808C64025
:100870002F21D906E816F47900F000E817F3FEC935
:1008800008C64006F7490806E811EA146106D506CD
:100890004106EA0C8000F51009EA058502F5110110
:1008A00021D906E903FD0E005CF8F4743333145CBF
:1008B000FC7CF8D3FCFEF3FECB08C6402FF4500CB2
:1008C000D940F4D0333308E802EA21F45104D94086
:1008D000F44108D940F4420AD940FD1000F4D10493
:1008E000D940F4C108D940F4C20AD940FEF3FECC85
:1008F00008C64078F4D004C640F480007141F48109
:1009000002714194F47885A100E961F3FED408C630
:1009100040F6D3F8F46444714120C0CCFFC8CEFF48
:10092000F33CF33C4C04F53C04F51C01F53C05F5A7
:100930001C02F53001F51C05F53002F51C046C04B1
:10094000F33CF33C1C7C00F4500CC640D308F82167
:1009500021F44092CB40F4D004C640F8C233F400F6
:100960001C7141F89F3DF4001E7141FEF4D00CD97A
:10097000406008D840E901FEF4D004C640F4905B22
:100980007541F4448BCB40F480929541F4408ECB7A
:1009900040F480969541C0CCFFC8CEFFF7186004A4
:1009A000F70000F8F718000881F71C6004C0CCFFBE
:1009B000CACEFFF402929541F4607C0300C0CCFFE4
:1009C000C8CEFFF40096954184A5F3C4F90008F35E
:1009D00064D404F91008F354F464007141F200F493
:1009E0007584CB40F4707C0300FDBCFDF47433339C
:1009F00015F720D6FCF3FED308C640F6FE00000033
:100A00009281008681008E8100B80100AC0100B6A1
:100A100001008480007880008080009C81009081AB
:100A2000009881009A81008E8100968100B081003B
:100A3000A48100AC81009481008881009081000233
:100A40008100F68000FE8000B48000A88000B080A5
:100A5000009080008480008C8000FBFF00F7FF0086
:100A6000FBFF00272F082E2F08272F08492F08509B
:100A70002F08492F08C18508B98508C185087ED48B
:100A8000081ED408D9D4082AEA08C8E9087CEA086C
:100A9000F9EC4002ED40F5EC407739086F39087702
:100AA000390828AE0845B10875AE0833AE0850B114
:100AB0000880AE08709D08F29D08B69D08709D08DC
:100AC000F29D08B69D08DBA708F0AA0828A8080030
:100AD00048000010000000008120025800000000C3
:100AE0007C0802A69521FFF83D208000900918009F
:100AF0009089180490A9180C429F00057D2802A631
:100B00003929FFDC812900007D2803A6812100000E
:100B1000382100084E8000213821FF88BC410000A8
:100B20003D2080008089180480A9180C8064000092
:100B300090691808429F00057C6802A63863003857
:100B4000906400008065000090691810429F0005C5
:100B50007C6802A6386300A0906500008129180017
:100B60007D2803A6B8410000382100784E8000207F
:100B70007C0802A69401FFF83821FF88BC410000E0
:100B80003D208000812900CC2809000141820024F9
:100B90003D20CC00A129206E552906FD4182000C84
:100BA000380000004800001038000001480000082C
:100BB000380000023D208000806900F42803000016
:100BC00041820008900300183CA08000806518084E
:100BD0007C6803A6B8410000382100784E800021CF
:100BE00080010000382100087C0803A64E80002008
:100BF0007C0802A69401FFFC3821FF88BC4100005C
:100C00003C60CC00A083640480A36408708500402D
:100C10004182000C3C002100480000BD70850800A6
:100C200041820020429F00057CA802A638A5FEACA8
:100C300080050000680000037000000290050000BD
:100C400070850010408200287085100040820030BE
:100C5000429F00057CA802A638A5FE8880050000FA
:100C60002C00000040820018480000403C608000DA
:100C70003C802BAD6084C0DE908300003C00E3002C
:100C8000480000553C0027004800004D3C60000033
:100C900060630BB8480000BD480000693C6081708B
:100CA0008401007848000028480000E53CA080004E
:100CB000806518107C6803A6B841000038210078D0
:100CC0004E80002180010000382100047C0803A62A
:100CD0004E8000203D20CC00900960083800002E96
:100CE00090096000380000019009601C8009601CB8
:100CF000700000012C0000004082FFF44E800020B4
:100D00007FE802A63D20CC003C6000406063D80034
:100D10003C80816F6084FFFC38A010CC9069600C2F
:100D20003C000001900960103C00FE014BFFFFA950
:100D300080096020940400043863000438A5FFFC97
:100D40002C0500004082FFD87FE803A64E800020DB
:100D50003C8000033884FFFF2C0400004082FFF831
:100D60003863FFFF2C0300004082FFE84E80002024
:100D70007CA903A63863FFFC3884FFFC84A300042D
:100D800094A400044200FFF84E8000207D2802A6B3
:100D9000429F00057C6802A638630050429F000510
:100DA0007C8802A63884FD348004000028000002FC
:100DB0004182000C380000004800000C380000019F
:100DC000386300343C808000900400CC3C80CC0030
:100DD0006084200038A0000D4BFFFF997D2803A6FA
:100DE0004E80002000060001476901AD02EA514033
:100DF000001501E6001401E7410C410C40ED40ED07
:100E000080100000000000008010000000000000C2
:100E100000000000110701AE000601014B6A01B09D
:100E200002F85640001501E6001401E74D2B4D6D08
:100E30004D8A4D4C00435A4E0000000000435A4E6C
:100E400000000000013C0144113901B1F710FFF727
:100E5000F5D9C8FFF4C000D140F7484444E91AF47A
:100E60007400D840FD2100F47400D140A000F47457
:100E7000740A08F7204C80F000F47400C640FD07A7
:100E800000F47400C640F000F47080C000C080FD23
:100E9000FD3200FD2F00F90001F341FD270091FD17
:100EA000230084AAFD1E001092FD1900F510019286
:100EB000D002F71D0100E9EC88FD0900D821E915F1
:100EC000F5D9C8FFFEF4C783FD00F50310E902EA77
:100ED000F4CC82FDFEF7140008F474000008F00062
:100EE000480006A02020447269766520566572731A
:100EF000696F6E2058007C6000A64E8000207C60E8
:100F000001244E80002000003D20817081290DF8D1
:100F10008009000060000150900900004E80002010
:100F20003D20817081290DF8800900005400062CB5
:100F3000900900004E8000203D208170380000356F
:100F400081290DF8906900109009000C8009000CAF
:100F5000700B00014082FFF84E8000202C0400003E
:100F60004D8200203D20817038E0000081490DF85D
:100F7000390000312F8400047C892378409D0008CB
:100F80003920000490EA00107D4B5378910A000C40
:100F9000800B000C700600014082FFF8800B0010EF
:100FA0007C89205190030000386300044082FFC810
:100FB0004E8000202F85000038A5FFFF4D9E0020A9
:100FC00038A500017CA903A69083000038630004C3
:100FD0004200FFF84E800020380000003D20817064
:100FE0003C60C0F03C8010803CA00002B00917704B
:100FF000606305003D2081706084108060A5D00092
:10100000B0090E004BFFFFB07C0802A69421FFD070
:101010003D208170BEE1000C7C7F1B789001003484
:10102000A00917702B8001CB40BD00084BFFFFAD1E
:10103000881F00002F800000419E01003D2081702C
:101040003D8081703B0913703D2081703B290F70FA
:101050003F8081703B4000003F6081702F80000A1C
:1010600040BE0018A12C1770B35C0E00392900187F
:10107000B12C1770480000B83D20817038C00000C6
:10108000814917745407103A7D27C02E3FA0817004
:101090007F865000A17C0E003D098102A00C1770D4
:1010A000409C00701C0001403BDB0F703D208170B4
:1010B0007C87F02E80690E047D4553787D605A143C
:1010C000394000007F8A2000409C00347D27F02EAC
:1010D0005560103A7D2903A67D201A147C0A40AE83
:1010E000394A00015400A814640010806000108088
:1010F00090090000392900044200FFE438C60001CD
:10110000390802007F862800396B0140419CFFB4FA
:10111000881F0000A13D0E005400103A7C19002EDB
:101120007D2902143929FFFEB13D0E008C1F0001FC
:101130002F800000409EFF283D208170A00917707D
:101140002B8001CB409D001880010034BAE1000CD7
:10115000382100307C0803A64BFFFE80800100345C
:10116000BAE1000C382100307C0803A64E80002034
:101170007C0802A69421FFF03900000090010014C1
:101180005500103A7D601A14812B00902F890000C1
:1011900041BE00347C03002E3929FFFF814B0048FB
:1011A0007D630214419E0020392900017D2903A698
:1011B000880B0000396B0001980A0000394A0001D1
:1011C0004200FFF0390800012F880011409DFFB454
:1011D000812300DC816300D82F8900003929FFFFBB
:1011E000419E001C39290001380000007D2903A61A
:1011F000980B0000396B00014200FFF8806300E0AB
:101200007C6903A64E80042180010014382100105F
:101210007C0803A64E8000209421FFE0388100085E
:101220007C0D42E67D0C42E67D2D42E67F80480043
:10123000409EFFF03CA000013CC0CF209121000C5B
:1012400060A59E409101000860C649A17D2D42E63F
:101250007C0C42E67D6D42E67F8958007D48005057
:101260007CE800107CE739107CE700D0409EFFE06E
:10127000800400047D2A30167C0058507C07005002
:101280007C0029D655298BFE7C004A147F801840AB
:10129000419CFFBC382100204E8000203D20817001
:1012A0003800002E81290DFC394000009009000013
:1012B000380000009009000438000001906900081F
:1012C0009089000C90A9001090C9001490A90018F2
:1012D0009009001C8009001C700800014182002454
:1012E0003D6000FF616BFFFF394A00017F8A584073
:1012F000419D00108009001C700800014082FFEC35
:101300003D20817081290DFC806900005463F7FE47
:101310004E8000203D2081703800002E81290DFC78
:101320003D60A800616B004039400000900900005A
:10133000390000403CE000FF380000039149000400
:101340007D264B789169000860E7FFFE9149000C0B
:10135000396000019109001090690014910900188A
:101360009009001C800600007F0B3800396B0001DB
:101370007009000441A2000C386000014E8000207A
:10138000800600182F80000040BE000C386000006E
:101390004E8000204099FFD04E8000203D2081707B
:1013A0003800002E81290DFC54A5F0BE3D0000F050
:1013B0003960000190090000380000009009000425
:1013C0003C00A800900900083800000390A9000C18
:1013D0007D2A4B789089001061080FFF90690014F6
:1013E000908900189009001C812A00007F0B4000A2
:1013F000396B000171200004800A00182F80000062
:1014000041A2000C386000014E80002040BE000C5C
:10141000386000004E8000204099FFD04E800020B0
:1014200038000010396000007C0903A65569103AA5
:10143000396B00017C09182E3D29CC009009200051
:101440004200FFEC380000103D2081707C0903A6AB
:1014500039490E88396000005569103A396B00012E
:101460007C09502E3D29CC00900920404200FFEC21
:101470003D60CC003D40CC003D20C0F0616B201CA5
:10148000614A2024612905003C00C0F0900B000057
:10149000912A00004E8000209421FF909081000C42
:1014A00090A1001090C1001490E100189101001C5F
:1014B000912100209141002440860024D821002859
:1014C000D8410030D8610038D8810040D8A1004808
:1014D000D8C10050D8E10058D9010060382100700F
:1014E0004E8000207C0802A69421FFF03D20800061
:1014F0003D608170612930E0396B0CF89001001477
:1015000038000006B0090000380000383D008000B7
:101510007C0903A693E1000C61080020906B00ACED
:10152000394000005540103A394A00017D2B002E09
:101530007D28012E4200FFF02F830001409E001CF9
:101540003C60817038630EC84BFFFAC13C6081700B
:1015500038630E48480000183C60817038630ED034
:101560004BFFFAA93C60817038630E0880010014BB
:1015700083E1000C382100107C0803A64BFFFEA479
:101580007C0802A63C6081709421FFC038630E483D
:10159000BF410028900100444BFFFE893D208000A0
:1015A0003C002BAD812900006000C0DE7F89000077
:1015B00040BE00C03C00CC003BA0000060006814AE
:1015C0003D20817090090DF863BDA0003FC08100EF
:1015D0003FE0817057A87EBE813F0DF857ABBA7EC1
:1015E00057AACFBE80090000600000C0900900002B
:1015F0003800005298010008990100099961000A19
:101600009941000B806100084BFFF931813F0DF8D3
:1016100057A0067E90090010380000059009000CC4
:101620008009000C700B00014082FFF88061000807
:101630003BBD02004BFFF9057FC3F3783880020001
:101640003BDE02004BFFF9193C000008813F0DF81A
:1016500060006FFF7F9D0000800900005400066E4F
:1016600090090000409DFF6C3C6081004BFFFB0532
:10167000388000003CA0005C3C6080003FC08102DC
:101680004BFFF9353BA030004BFFF8813C60C000B8
:101690004BFFF8A93FE0001F3C6002004BFFF89DA4
:1016A0004BFFF88163FFCF004BFFF86157E3303207
:1016B0004BFFF8897FC3F378388001003BDE0100DF
:1016C0004BFFF89D4BFFF85D37BDFF003BFF01006E
:1016D0004082FFD83CE081023FC0810183E70004E3
:1016E0003940000080C7000838A000008107000CC6
:1016F00038600010388000002F850000409E0010E8
:101700007C83382E38A00020386300042F8400002A
:1017100040BC00187C0838AE390800017C0AF1AEE4
:10172000394A0001480000587C063A2E38C60002AB
:101730007C0966705400053E2F8900007D60505082
:10174000409E00147D2838AE390800013929001266
:1017500048000008392900022F8900003D6B8101F3
:10176000409D001C7D2903A6880BFFFF396B0001FB
:101770007C0AF1AE394A00014200FFF07F8AF8008E
:101780005484083C38A5FFFF419CFF703CC0810198
:101790003BE00000A3C60020812600247F9FF000CC
:1017A000A0A6001E3CE98101409C0080386000003A
:1017B0007F832800409C0068388000007D3F221411
:1017C000390000007D2929D63D2981027D491A145E
:1017D0007D2838AE390800012F8800015520D1BE80
:1017E000552BE7BE980A00005520F7BE9D6A000100
:1017F000552907BE9C0A00019D2A0001394A0001B3
:1018000040BDFFD03884000138E700022F84000774
:10181000409DFFAC386300084BFFFF983BFF00087A
:101820007F9FF0004BFFFF843D2081703800010056
:101830003BA90F70A3E600023D2081707C0903A63E
:101840003BC9137038A000007F85F80054A3103AFC
:101850007CA72B78419C0010A00600047F85000027
:10186000409D0008A0E60006A166001A7CFF3850E3
:10187000A086001238A500017C075BD6A1260022B5
:10188000A106001EA14600103D2981017D2938AE28
:101890007D23E92E7D6059D67C0021D67CEB385023
:1018A0007C0041D67D4751D67C0052147C03F12E3A
:1018B0004200FF983D2081703F60817090891774CD
:1018C0004BFFF7193C60817038630ED84BFFF73D32
:1018D0003C60817038630EF04BFFF731387B0ED4DB
:1018E0004BFFF729480000084BFFF9313C60C0006E
:1018F0004BFFFA252F830000386001F4409EFFEC77
:101900003D2080003C004C006000006461290C0018
:10191000900900003880000038A0000038C00000A6
:101920003FA081703C6028004BFFF9753BDD0F2024
:101930003C60C0003B8000004BFFF9DD7FC3F378C3
:101940003880005038A000404BFFFA55939E00406D
:10195000801D0F203F4081703BE000002F80000081
:1019600038000048B01A1770419E0078809E000031
:10197000381F0001541F043E38C000005484F0AEEC
:1019800038A000203C6028004BFFF9153C60C000E7
:101990004BFFF9853880004038A000203C60C080B3
:1019A0004BFFF9FD3D20C0803C002E2E6129001424
:1019B00060002E003C60C0809009000038000015D7
:1019C0003D208170B0090E004BFFF641387B0ED4EC
:1019D0004BFFF639841E00042F8000004BFFFF8C64
:1019E00057FE043E2F9E0000409E0010380000006D
:1019F0003BC00001901D0F203D20CC0061296404F4
:101A0000800900003D20CC0061296408541D843EFB
:101A100073A00008800900004182000C381CFFFF01
:101A2000541C043E73A900044182000C381C0001C0
:101A3000541C043E380000006000FFFF7F9C000043
:101A400040BE000C381EFFFF541C043E7F80F2781D
:101A5000386000647C0BFE707D6002787C0058501A
:101A60007C00FE707F9C00384BFFF7B173A0010033
:101A700041A2011C3D2081705780103A39290F2066
:101A800038C000007C89002E38A000003C6028008F
:101A90003FA0C0105484F0AE4BFFF805386001F44D
:101AA0004BFFF7793C60C0004BFFF86D4BFFF52D05
:101AB0003880046038A000003C60C0104BFFF8E1A3
:101AC0003C60817038630F084BFFF541887D045BF3
:101AD00068630002200300007C6019144BFFFA09C0
:101AE0003880002038A024403C60C0104BFFF8B183
:101AF000809D001438A024603C6081203884001F41
:101B0000548400344BFFF89983BD00103861000CF9
:101B1000388100107FA903A638A100144E8004214B
:101B20008001000C3C608170386305B87C0903A615
:101B30004E800421380000003881001C90010020F4
:101B400038A1002090010018386100189001001C95
:101B5000800100107C0903A64E8004212F83000021
:101B6000419E0018806100188081001C80A1002027
:101B70004BFFF82D4BFFFFC0800100147C0903A62A
:101B80004E8004217C6803A64E8000213BE00000CB
:101B9000380000487F9FF040B01A177040BCFE5CD0
:101BA0007F9FE0003C60817038630F14419E000C01
:101BB0003C60817038630F184BFFF451381F0001EF
:101BC000541F043E3D2081707F9FF040380000008C
:101BD000B0090E004BFFFFC80D15EA5E00000001C2
:101BE000018000000000000300000000816FFFF092
:101BF000817FE8C000000024000000000000000019
:101C000000000000000000000000000000000000D4
:101C1000000000000000000038A000407C6802A620
:101C20009065000C80650008646380007C6803A6F2
:101C3000386000307C6001244E80002000000000ED
:101C40000000000000000000000000000000000094
:101C50000000000000000000000000000000000084
:101C60000000000000000000000000000000000074
:101C70000000000000000000015D47F8F8248360C8
:101C80000000000000000001000000000000000053
:101C90000000000000000000814B7F50815D47F88C
:101CA000000000008180000001800000817FC8C02A
:101CB00009A7EC801CF7C5800000000000000000B0
:101CC0000000000000000000000000000000000014
:101CD0000000000000000000CC006800CC006000A4
:101CE00000200000C0F0A5000F060001476901AD0B
:101CF00002EA51400003001800020019410C410C97
:101D000040ED40ED00000000000000000000000079
:101D10000000000000000000110701AE10010001EA
:101D2000000100010001000111F501014B6A01B041
:101D300002F8564000010023000000244D2B4D6D99
:101D40004D8A4D4C00000000000000000000000023
:101D500000000000013C0144113901B110010001F3
:101D6000000100010001000100000000000000006F
:101D7000285001001AE771F00DB4A57400C1188E47
:101D8000C4C0CBE2FCECDECF13130F0800080C0F2D
:101D900000FF00000000000002800000000000FFC3
:101DA00000FF00FF00FF00FF50414C0A0000000050
:101DB0004E5453430A00000058656E6F474320534A
:101DC00068656C6C2076302E39382062657461004D
:101DD0000A2D2D2D2D2D2D2D2D2D2D2D2D2D2D2D56
:101DE0002D2D2D2D2D0000000A4C6F6164696E674A
:0E1DF0002E2E2E00400A000020200A00FFCFF9
:00000001FF
