:100000001DC036C035C034C033C032C031C030C06E
:100010002FC02EC02DC02CC02BC02AC029C028C084
:1000200027C026C025C08000C4DAFCF474740A0816
:10003000F7204C80F47400D040F0000011241FBE63
:10004000CFE5D4E0DEBFCDBF10E0A0E6B0E0E6E54E
:10005000FDE102C005900D92A036B107D9F710E07E
:10006000A0E6B0E001C01D92A236B107E1F7B5C12C
:10007000C7CF88EC90E003972FEF8F3F9207D9F717
:100080000895882311F0C49A01C0C498C59840917E
:100090006000509161004115510539F488EC90E001
:1000A00003972FEF8F3F9207D9F726B32870C59A91
:1000B000452B39F488EC90E003973FEF8F3F93078F
:1000C000D9F780E090E0222311F081E090E00895DC
:1000D000089588E081BDFFCF1F93CF93DF93182F42
:1000E000C0E0D0E0B19B08C0CE012196815197427B
:1000F0000CF0EFDFB199F8CFC0E0D0E0B199E9DFC3
:1001000081E090E00C2E02C0880F991F0A94E2F75C
:100110008123B7DF2196C830D10584F3DF91CF91D9
:100120001F9108951F93CF93DF9310E0C0E0D0E0BC
:10013000B19908C0CE012196815197420CF0C9DFD8
:10014000B19BF8CFC0E0D0E0B19BC3DF80E099DF86
:100150000C2E02C0880F991F0A94E2F7182B2196E3
:10016000C830D1058CF3812F9927DF91CF911F9152
:1001700008950F931F93CF93DF93082F10E0C0E0F3
:10018000D0E081E090E00C2E02C0880F991F0A9405
:10019000E2F7802376DF0C2E02C0880F991F0A94A5
:1001A000E2F7182B2196C830D1055CF3812F9927EF
:1001B000DF91CF911F910F910895AF92BF92CF928F
:1001C000DF92EF92FF920F931F93CF93DF935C0127
:1001D0007A018B0169018FEF7FDF80E07DDFBB2734
:1001E00017FDBA95A12F902F8F2D76DF8E2D74DFFE
:1001F00080E072DFC801BB2797FDB095AB2F6CDFA5
:1002000080E06ADF80E068DF8C2D66DF80E064DFFD
:1002100089DFC82FDD2786DF9927982F8827C82BED
:10022000D92B209711F0CE0116C00894C108D1082F
:100230008FEFC8168FEFD80661F074DFF501819358
:100240005F010894C108D108FFEFCF16FFEFDF066A
:10025000A1F780E090E0DF91CF911F910F91FF9087
:10026000EF90DF90CF90BF90AF900895CF92DF9244
:10027000EF92FF920F931F937B018C016A018EEF27
:100280002BDF80E029DFBB2717FDBA95A12F902F28
:100290008F2D22DF8E2D20DF8C2D1EDFC801BB2786
:1002A00097FDB095AB2F18DF8D2D992715DF80E0D6
:1002B00013DF82E011DF80E00FDF34DF33DF32DF76
:1002C00031DF1F910F91FF90EF90DF90CF90089555
:1002D000CF92DF92EF92FF920F931F937B018C01DD
:1002E0006A018EEFF9DE80E0F7DEBB2717FDBA95D5
:1002F000A12F902F8F2DF0DE8E2DEEDE8C2DECDEDB
:10030000C801BB2797FDB095AB2FE6DE8D2D992751
:10031000E3DE80E0E1DE82E0DFDE80E0DDDE1F9113
:100320000F91FF90EF90DF90CF900895CF92DF92E2
:10033000EF92FF920F931F93CF93DF937B018C017A
:10034000EA0169011216130604F5FE018491282FB3
:1003500033272196FE0184919927982F8827282BEF
:10036000392BA901C801B70181DF82E090E0A0E04C
:10037000B0E0E80EF91E0A1F1B1FAEEFBFEFCA0E5A
:10038000DB1E21961C141D0404F3DF91CF911F91F5
:100390000F91FF90EF90DF90CF900895CF93DF9370
:1003A000CDB7DEB722970FB6F894DEBF0FBECDBF34
:1003B00089839A8389819A81019789839A83898124
:1003C0009A818F5F9F4FB1F722960FB6F894DEBFE8
:1003D0000FBECDBFDF91CF910895CDE5D4E0DEBF54
:1003E000CDBF00E010E08CE081BB88B3877C88BB88
:1003F000C19A82EB87BBB9989398929A1695079504
:1004000081E03FDE892B09F010682EEE0E3E1207C8
:10041000A9F76CE4A62E65E0B62E50E7E52E5EE067
:10042000F52EEA18FB088EEF9FEFE822F922E2E0B2
:10043000F0E0EE0EFF1E19821A829F0140E051ED9E
:1004400060E470E0CE010196B8DE89819A8184541F
:10045000944491F440E5A42E4FE0B42E34E5E32E0D
:100460003DE1F32EEA18FB088EEF9FEFE822F92218
:10047000E2E0F0E0EE0EFF1E8FE49FE080579E402A
:100480008E7F02969C0140E75EE060E070ED80E4C4
:1004900090E04CDF25E130E046E250E064E776E8AA
:1004A00080E090E043DF46E850E06DE470E880E0F3
:1004B00090E00EDF80E05DDE81E090E090936100EF
:1004C0008093600084E690E069DF80E052DE84E69D
:1004D00090E064DFC701892F992786954ADE84E67C
:1004E00090E05CDF870116950795802F42DE84E659
:1004F00090E054DF80E03DDE939AC02EE114F104D9
:1005000099F0850184E690E049DFF801D4908D2DC3
:1005100030DE8C11DEDDCD2C0894E108F1080F5F90
:100520001F4FE114F10471F784E690E037DF81E2B8
:1005300020DE80E01EDE80E01CDE9298C19AB19B36
:10054000FECFC7DD80E090E005CC0000EA08EA4D70
:1005500000000C000000F710FFF7F4741BC640F415
:1005600070590500FDA101FDEE01F47402C640F7CB
:10057000204C808001F44033330AA0F474333313E9
:10058000F720D2FCF50804F474333315F720D6FCB9
:10059000F50808C4DAFCF7140008FC0C02F3FEC8E6
:1005A000DAFC005DF3FEC9DAFC0065F4C033330306
:1005B000F440333304800CF440333305F4743333A4
:1005C000118002F0208001F444333301A0F4740060
:1005D000EC404000F51009F47433330920F4400472
:1005E000C640F8AD2B00F4E1D543C7F474333309AA
:1005F00020F748AD2BE803FC9800F4C004C6400087
:10060000FEF5D8DAFCF5D844FCF47506C940EA29B1
:10061000F5D9DAFCF5D844FCF731D6FCF47D333358
:1006200015E907F47579C840EA0FF47D333317E90B
:1006300015F4759BC840EA01FEF27CD004CC5B80C7
:10064000D801E9027C0451207134F47D33330EE982
:100650000FF3FED009C640F6DC0600F45006C64093
:10066000FEF2F9F4D2A0CA407104FD1C00F249FD6B
:1006700017005104F236FEF3FED309C640F67104AA
:10068000FD0600F451A0CA40FEF721BCFFF731BCC3
:10069000FFFED828E8E1F748A800E8C5F748AB0016
:1006A000E8BFF748E100E8B9F748FE01E90BF5318A
:1006B00002D901E903FD3E00FED821E909F3FED18C
:1006C00009C640F6EA27D825E907FD2000FD2600E7
:1006D000FED827E920FD1500FD1B00F84444F44036
:1006E00000D140F5D1C8FFF6F5D9C8FFFEF8E0000B
:1006F000F444333309FEF710FFF7A0C0DAFCF474BA
:10070000740A08F7204C80FEF231F241A5F4C812B9
:100710000808F7489C00E806D857E806EA0685036B
:10072000EA02850630D833E928F53001D833E921CB
:10073000F53002F71C01008A09F35894F476A4CA34
:1007400040F2023810F53801F51001F53802F510C5
:1007500002D001F264E7CDFEDC0080F47133331087
:10076000806ED3F85CFCF4742BC8405C04F47433E2
:10077000330C5C007CFCFEDC6E80A0F47133330231
:10078000D3F85CFCF47449C8405C04F47433330D52
:100790005C007CFCFEFEF700FEFF2501D002D102CA
:1007A000F71C0200D800E9F2FE8021F44412004058
:1007B0008002F4441300405CF8F47433330F5CFCA3
:1007C0007CF8D3FCFEF3FECA09C64003FD2D00F4FD
:1007D00075333317F721D6FCA05CF8F47433331665
:1007E0005CFC7CF8D3FCFEFD5900A0F57E087D0C76
:1007F000D310FE00FE100000FFFF0008D3FA5C00DB
:100800004C04F474333311F520FFF4C133330BF38C
:1008100004F510FFF474A8C840D3F85CFCF474E24B
:10082000C8405C04F4743333125C007CFCFEF8F0C6
:1008300000F44414EC40A0F44033330A7C006C0410
:10084000D306FE8006F4403333068003F44033338E
:1008500007FEF710FFF7F3FEC809C6402F21D9069F
:10086000E816F47900F000E817F3FEC909C640065F
:10087000F7490806E811EA146106D5064106EA0CB4
:100880008000F51009EA058502F5110121D906E974
:1008900003FD0E005CF8F4743333145CFC7CF8D375
:1008A000FCFEF3FECB09C6402FF4500CD940F4D027
:1008B000333308E802EA21F45104D940F44108D95D
:1008C00040F4420AD940FD1000F4D104D940F4C1EB
:1008D00008D940F4C20AD940FEF3FECC09C64078DC
:1008E000F4D006C640F480007141F4810271419455
:1008F000F47885A100E961F3FED409C640F6D3F887
:10090000F46444714120C0CCFFC8CEFFF33CF33CFB
:100910004C04F53C04F51C01F53C05F51C02F530D2
:1009200001F51C05F53002F51C046C04F33CF33CA6
:100930001C7C00F450A0CA40D308F82121F4408266
:10094000CB40F4D006C640F8C233F4001C7141F825
:100950009F3DF4001E7141FEF4D00CD9406008D8D0
:1009600040E901FEF4D006C640F4905B7541F444C2
:100970007BCB40F480929541F4407ECB40F480964E
:100980009541C0CCFFC8CEFFF7186004F70000F80F
:10099000F718000881F71C6004C0CCFFCACEFFF432
:1009A00002929541F460B00300C0CCFFC8CEFFF4C2
:1009B0000096954184A5F3C4F90008F364D404F9C2
:1009C0001008F354F464007141F200F47574CB40E4
:1009D000F470B00300FDBEFDF474333315F720D678
:1009E000FCF3FED309C640F6FE0000000000000044
:1009F0009281008681008E8100B80100AC0100B6B2
:100A000001008480007880008080009C81009081BB
:100A1000009881009A81008E8100968100B081004B
:100A2000A48100AC81009481008881009081000243
:100A30008100F68000FE8000B48000A88000B080B5
:100A4000009080008480008C8000FBFF00F7FF0096
:100A5000FBFF00272F082E2F08272F08492F0850AB
:100A60002F08492F08C18508B98508C185087ED49B
:100A7000081ED408D9D4082AEA08C8E9087CEA087C
:100A8000F9EC4002ED40F5EC407739086F39087712
:100A9000390828AE0845B10875AE0833AE0850B124
:100AA0000880AE08709D08F29D08B69D08709D08EC
:100AB000F29D08B69D08DBA708F0AA0828A8080040
:100AC00048000010000000008120025800000000D3
:100AD0007C0802A69521FFF83D20800090091800AF
:100AE0009089180490A9180C429F00057D2802A641
:100AF0003929FFDC812900007D2803A6812100001F
:100B0000382100084E8000213821FF88BC410000B8
:100B10003D2080008089180480A9180C80640000A2
:100B200090691808429F00057C6802A63863003867
:100B3000906400008065000090691810429F0005D5
:100B40007C6802A6386300A0906500008129180027
:100B50007D2803A6B8410000382100784E8000208F
:100B60007C0802A69401FFF83821FF88BC410000F0
:100B70003D208000812900CC280900014182002409
:100B80003D20CC00A129206E552906FD4182000C94
:100B9000380000004800001038000001480000083C
:100BA000380000023D208000806900F42803000026
:100BB00041820008900300183CA08000806518085E
:100BC0007C6803A6B8410000382100784E800021DF
:100BD00080010000382100087C0803A64E80002018
:100BE0007C0802A69401FFFC3821FF88BC4100006C
:100BF0003C60CC00808364045484843E80A36408F9
:100C0000708500404182000C3C002100480000C17A
:100C10007085080041820020429F00057CA802A642
:100C200038A5FEA8800500006800000370000002DF
:100C3000900500007085001040820028708510002B
:100C400040820030429F00057CA802A638A5FE84A1
:100C5000800500002C00000040820018480000447D
:100C60003C6080003C802BAD6084C0DE908300003F
:100C70003C00E300480000593C00270048000051B8
:100C80003C60000060630FA0480000ED4800006D6C
:100C9000480000B93C608170840100784800002859
:100CA000480001113CA08000806518107C6803A6F4
:100CB000B8410000382100784E80002180010000FA
:100CC000382100047C0803A64E8000203D20CC0083
:100CD000900960083800002E90096000380000017B
:100CE0009009601C8009601C700000012C0000004D
:100CF0004082FFF44E8000207FE802A63D20CC0019
:100D00003C6000406063D7FC3C80816F6084FFF8EA
:100D100038A00F049069600C3C000001900960103D
:100D20003C00FE014BFFFFA98009602094040004F1
:100D30003863000438A5FFFC2C0500004082FFD872
:100D40007FE803A64E8000203C80CC0060843024E5
:100D500080A4000054A507B860A5000190A400007D
:100D600080A4000060A5000460A5000190A400001C
:100D70004E8000203C8000033884FFFF2C040000DC
:100D80004082FFF83863FFFF2C0300004082FFE839
:100D90004E8000207CA903A63863FFFC3884FFFC4A
:100DA00084A3000494A400044200FFF84E800020B5
:100DB0007D2802A6429F00057C6802A63863005089
:100DC000429F00057C8802A63884FD008004000054
:100DD000280000024182000C380000004800000C8E
:100DE00038000001386300343C808000900400CC5F
:100DF0003C80CC006084200038A0000D4BFFFF99A0
:100E00007D2803A64E80002000060001476901AD41
:100E100002EA5140001501E6001401E7410C410CC3
:100E200040ED40ED80100000000000008010000048
:100E30000000000000000000110701AE00060101E3
:100E40004B6A01B002F85640001501E6001401E7B4
:100E50004D2B4D6D4D8A4D4C00435A4E0000000005
:100E600000435A4E00000000013C0144113901B119
:100E7000F710FFF7F5D9C8FFA0F44060EC40F4C0CC
:100E800000D140F7484444E91AF47400D840FD1FEB
:100E900000F47400D140A000F474740A08F7204CE8
:100EA00080F000F47400C640FD0500F4E1C0F5FFD9
:100EB000F47080C000C080FD8051FD5000FD6600D0
:100EC0008043FD4800FD5E00F90001F341804FFDC5
:100ED0003B00FD5100918044FD3200FD480084FD3F
:100EE0002B00AAFD4000FD24001092FD3800FD1CDF
:100EF00000F5100192D002F71D0100E9E688FD25FA
:100F000000FD0900D821E937F5D9C8FFFEF25AF4EF
:100F1000C783FD00F50380E809D201EED007E81F82
:100F2000EAEDC482FDFEF25AF4C783FD00F503101A
:100F3000E909D201EED007E806EAEDCC82FDFEF425
:100F400074740A08F7204C80F474000008F0000064
:100F50003C20817F480008984E8000207C6000A6DD
:100F60004E8000207C6001244E800020546506FFE6
:100F700041820008388400203884001F5484D97EC0
:100F80007C8903A67C0018AC7C001FAC3863002071
:100F90004200FFF4440000027C0004AC4C00012C31
:100FA0004E80002020204472697665205665727359
:100FB000696F6E20580000003D2081703940003577
:100FC00081290CD8906900109149000C8149000CCE
:100FD000714A00014082FFF84E8000203D20817060
:100FE0003863FFFC81290CD83900000038E000315B
:100FF0002C0400004D8200202C0400047C8A2378FD
:1010000040810008394000049109001090E9000C6B
:1010100080C9000C70C600014082FFF880C9001032
:101020007C8A205094C300044BFFFFC83D20CC00B5
:101030003C63340039400010612920003863E0002F
:101040007D4903A67D43482E392900049149FFFCC0
:101050004200FFF43D40817039000010394A0CE82D
:101060007D0903A63D4A3400394ADFC07D09502E70
:10107000392900049109FFFC4200FFF43D20CC0017
:101080003D40C0F06129201C91490000394A05000B
:10109000914900084E800020392000003863FFFE8F
:1010A000B1240000B125000039200FFE7D2903A6E0
:1010B000A5430002A12400007D295214B1240000A0
:1010C000A1230000A14500007D2948F87D29521484
:1010D000B12500004200FFDCA124000039400000DF
:1010E000614AFFFF7C09500040A20008392000003F
:1010F000B1240000A12500007C09500040A2000896
:1011000039200000B12500004E8000209421FFC04E
:101110007C0802A6BEC100183FC081709001004447
:101120007C9C2378547D68243BE000003BDE0CD897
:101130003B4004A53B2000523B0000003AE0000089
:101140003AC00005815E00007D3DFA149B21000835
:101150007F7CFA14934A0000552A7EBE5529BA7E38
:10116000994100099921000A9B01000B8061000848
:101170004BFFFE49813E000092E9001092C9000C2D
:101180008149000C714A00014082FFF8386000007C
:101190003BFF02004BFFFE25388002007F63DB78B7
:1011A0004BFFFE3D815E0000281F2000812A0000C9
:1011B0005529066E912A00004082FF8C396100405B
:1011C000480005F49421FFE87C0802A69001001C69
:1011D000BF810008549E30327CBF2B783F808170E5
:1011E0007FA32A14815C0CD87FC3F3783BDE4000D8
:1011F000812A000061290150912A00004BFFFDBDAA
:101200007C7FE850388001004BFFFDD5815C0CD815
:1012100037FFFF00812A00005529062C912A000083
:101220004082FFC439610018480005A4392000003D
:101230003D408170B12A0CDC3D408170B12A160816
:101240003D20817081290CE03D40C0F03D001080C0
:10125000614A05001D290280610810805529F87E29
:10126000392900017D2903A6420000084E80002094
:10127000910A0000394A00044BFFFFF09421FFD887
:101280007C0802A6BF0100083FE08170A13F16085C
:101290007C7C1B789001002C280901CB40A1000820
:1012A0004BFFFF8D3D2081703D00817083A91604A6
:1012B0003D20817083C90CE4387CFFFF3D60817064
:1012C00039080E043B8000008D430001A13F160841
:1012D0002C0A000040A2003C280901CB40A100F8E4
:1012E0008001002C830100088321000C7C0803A6E8
:1012F00083410010836100148381001883A1001CC6
:1013000083C1002083E10024382100284BFFFF2007
:10131000280A000A4082001439290018B38B0CDC1B
:10132000B13F16084BFFFFA4554A103AA0EB0CDC66
:101330007F2852141D2901407D48502E54FB103A3D
:101340007F7EDA14388000003C0A81027C04E800C9
:10135000548C482C7D8062144080005C81590400CC
:10136000553A103A7F5ADA1438A000002C0A0000CF
:1013700038CA000140A0002838C000014800002001
:101380007D4C28AE54B8103A38A50001554AA8142F
:10139000654A1080614A10807D5AC12E2C060001DA
:1013A00038C6FFFF4082FFDC388400013929014044
:1013B0004BFFFF9C8923000038E7FFFE5529103AB8
:1013C0007D284A14812904007CE93A14B0EB0CDC36
:1013D0004BFFFEF839610028480003E49421FFF038
:1013E0003D208000612930E0394000067C0802A6DB
:1013F00093E1000C900100143D007FFFB149000013
:101400003D20817039290BD86108FFE0906900AC5C
:101410003D4080007D29421439000038614A002097
:101420007D0903A67D0A482E394A0004910AFFFC73
:101430004200FFF4280300013C60817038630CE82F
:101440003FE0817040A2001C386300404BFFFBE18D
:1014500039200240913F0CE0396100104800037CC4
:10146000386300804BFFFBC9392001E04BFFFFE8E8
:101470009421FFE87C0802A69001001CBFA1000C8B
:101480007C7F1B787C7E1B783BA30048813E0090CC
:101490002C09000041A2002C815E000039290001C6
:1014A00080FE00487D2903A67D1F521439400000AC
:1014B00042000084809E0090807E00484BFFFAB17D
:1014C0003BDE00047C1EE8404082FFC4813F00DC1C
:1014D00039000000815F00D8392900017D2903A669
:1014E000420000644BFFFA79546307FA5463045EC8
:1014F000606300024BFFFA714BFFFA655463045EB0
:101500004BFFFA654BFFFA59606320024BFFFA5913
:10151000813F00E08001001C83A1000C7D2903A60F
:1015200083C100107C0803A683E100143821001851
:101530004E8004207D2850AE7D2751AE394A0001EF
:101540004BFFFF70990A0000394A00014BFFFF94DE
:101550005463083C7C63222E4E8000209421FFD0EF
:101560007C0802A6BF61001C3BC320007C7F1B7867
:1015700038A1000A388100087FC3F3789001003455
:101580003BBF40004BFFFB15837F3FFC838100087E
:1015900038A1000A388100087FA3EB784BFFFAFDE1
:1015A0007F9BE040815F5FFC812100087C0A48400E
:1015B00040BE002840A20018A15F3FFAA13F5FFA99
:1015C0007C0A4840418100087FBEEB7839610030D9
:1015D0007FC3F378480001F441A2FFF03BC0000054
:1015E0004BFFFFEC9421FFD87C0802A6BF810018B6
:1015F00038A1000A7C7E1B783881000838636004BB
:101600009001002C3FFE00014BFFFA91839E600089
:1016100038A1000A83A1000838810008387F8004BF
:101620004BFFFA797F9CE840815F800081210008B0
:101630007C0A484040BE002C40A20014A15E600419
:10164000A13F80047C0A484040810010387E600041
:101650003961002848000178387F80004BFFFFF493
:1016600041A2FFF8386000004BFFFFE82C030000A8
:101670009421DFD87C0802A63D20CC009001202CCC
:1016800061296814BF012008408200083929FFEC55
:101690003D4081703BE00000912A0CD857E468245B
:1016A0007FE3FB783C8480803BFF00014BFFFA61C5
:1016B0002C1F00054082FFE83C6080804BFFFEA1AC
:1016C0007C7D1B79418200C83C6080804BFFFF1904
:1016D0002C030000418200B839402000392000006E
:1016E0003B6100087D4903A67D4348AE7D49D9AEE4
:1016F000392900014200FFF43F4081703B000000A7
:101700003BFD00073B5A0DA83BBD1FC76318FFFFF9
:1017100039400008392000007D4903A67D5A48AEB3
:10172000392900017D1F48AE7C08500040820054DA
:101730004200FFECA13F002F3B800000A33F00319F
:101740005529083C7FC9DA2E4800002057846824B8
:101750007FC3F3783C84808057DE083C4BFFF9B1AF
:101760007FDEDA2E3B9C00017C19E0004081000CFA
:101770007C1EC0004082FFD83C6080804BFFFCF59F
:101780003BFF00407C1FE8404082FF8839612028F1
:101790004800002C81CBFFB881EBFFBC820BFFC05F
:1017A000822BFFC4824BFFC8826BFFCC828BFFD0A1
:1017B00082ABFFD482CBFFD882EBFFDC830BFFE050
:1017C000832BFFE4834BFFE8836BFFEC838BFFF0FD
:1017D00083ABFFF483CBFFF8800B000483EBFFFCAB
:1017E0007C0803A67D615B784E8000209421FFE891
:1017F0007C0802A69001001CBFA1000C4BFFF75D06
:101800003D40005B3D208000614AFFFF61290004EC
:10181000390000007D4903A6910900003929000420
:101820004200FFF83D2080003D404C00614A0064CA
:1018300061290C0091490000386000013FE081708F
:101840004BFFFE2D386000004BFFFE253D20810040
:101850006129005588690000686300507C6300348A
:101860005463D97E4BFFFB794BFFF9C5815F0CD8E0
:101870003C60C000812A000061290150912A0000CB
:101880004BFFF7393C6002004BFFF731815F0CD80A
:1018900038A0010038800000812A00003C608100EF
:1018A0005529062C912A00004BFFF91D3C80001F92
:1018B0006084CF003C60810238A030004BFFF90902
:1018C0003D20810280090004386000008189000801
:1018D000388000008109000C394000003960001098
:1018E0002C040000408200143D2B8102388000202F
:1018F00080690000396B00042C0300003CEA810180
:10190000408001403D288102394A000189290000B8
:1019100039080001992700007C0050005463083CFE
:101920003884FFFF4181FFBC3D2081013860000009
:10193000A0A9001E3880000080E900243965000756
:10194000A00900203CE7810154BF1838556B0BB645
:101950007C00200041A101C83D2081013CC0817074
:10196000A169000238C60E04A3A900223940000074
:10197000A069001A3D808101A0A900123BC60400A5
:10198000A3E9001EA0090010392001007D2903A64B
:101990007C0B500041810014A10C00047D49537858
:1019A0007C08500040800008A12C00067D0B4850A8
:1019B0005544103A7D28EA14394A00013D29810135
:1019C000892900007D24F12E7D281BD67CE929D6AB
:1019D0007D2919D67D2940507CE7F9D67D2901D68D
:1019E0007D274A147D24312E4200FFA83C6081707F
:1019F0003D20817038630DB190A916044BFFF8812A
:101A00003C60817038630DBC4BFFF8753C608170A1
:101A100038630DA84BFFF8693C60817038630DCDC9
:101A20004BFFF85D3C60817038630DE24BFFF8516D
:101A30003C60817038630DFB4BFFF84548000000A7
:101A40003D2C8102398C0002A0A9000054A9053E5A
:101A50007CA566702C0500007D29505038C5000219
:101A6000408200143CC881023908000188C6000089
:101A700038C600123929FFFE7CC903A63D29810121
:101A80008CA9000138E7000198A7FFFF4200FFF48E
:101A90007D4A32144BFFFE84390000087D3E32142B
:101AA0007D0903A6890A0000394A00027D1D3670AF
:101AB0009BA90000551DE7BE9BA90001551DF7BE5F
:101AC000550807BE9BA9000299090003890AFFFF78
:101AD0007D1D36709BA90004551DE7BE9BA900051E
:101AE000551DF7BE550807BE9BA9000699090007BA
:101AF0007D292A144200FFB038C600087C0530005A
:101B000054CA083C7D4752144181FF907CE75A1427
:101B1000388400087C63FA144BFFFE3838C000009C
:101B20003FC381024BFFFFD80D15EA5E00000001A4
:101B3000018000000000000300000000816FFFF042
:101B4000817FE8C0000000240000000000000000C9
:101B50000000000000000000000000000000000085
:101B6000000000000000000038A000407C6802A6D1
:101B70009065000C80650008646380007C6803A6A3
:101B8000386000307C6001244E800020000000009E
:101B90000000000000000000000000000000000045
:101BA0000000000000000000000000000000000035
:101BB0000000000000000000000000000000000025
:101BC0000000000000000000015D47F8F824836079
:101BD0000000000000000001000000000000000004
:101BE0000000000000000000814B7F50815D47F83D
:101BF000000000008180000001800000817FC8C0DB
:101C000009A7EC801CF7C580000000000000000060
:101C100000000000000000000000000000000000C4
:101C20000000000000000000CC0068000020000060
:101C3000000001E0C0F0A50000000000000000006E
:101C4000285001001AE771F00DB4A57400C1188E78
:101C5000C4C0CBE2FCECDECF13130F0800080C0F5E
:101C600000FF00000000000002800000000000FFF4
:101C700000FF00FF00FF00FF11F501014B6A01B0FA
:101C800002F8564000010023000000244D2B4D6D4A
:101C90004D8A4D4C000000000000000000000000D4
:101CA00000000000013C0144113901B110010001A4
:101CB00000010001000100010F060001476901ADAC
:101CC00002EA51400003001800020019410C410CC7
:101CD00040ED40ED000000000000000000000000AA
:101CE0000000000000000000110701AE100100011B
:101CF000000100010001000178656E6F2E646F6CB9
:101D00000058656E6F506F6F700A0A00436F756CF4
:101D100064206E6F742066696E643A0A000A0A5481
:101D200075726E206F666620796F75722047432E3C
:101D30000A0056657269667920646F6C20697320A9
:101D4000696E206569746865720A004D656D63612E
:061D500072642E00FFCFBB
:00000001FF
